{
	"data": {
		"bytecode": {
			"linkReferences": {},
			"object": "608060405234801562000010575f80fd5b5060405162001b8238038062001b82833981810160405281019062000036919062000c4b565b62000051600160f81b601060f81b176200009860201b60201c565b8060085f6101000a81548173ffffffffffffffffffffffffffffffffffffffff021916908373ffffffffffffffffffffffffffffffffffffffff160217905550506200101a565b5f73ffffffffffffffffffffffffffffffffffffffff1660015f9054906101000a900473ffffffffffffffffffffffffffffffffffffffff1673ffffffffffffffffffffffffffffffffffffffff1614806200012457505f6200012260015f9054906101000a900473ffffffffffffffffffffffffffffffffffffffff166200037e60201b60201c565b145b156200013d576200013b5f6200038860201b60201c565b505b60015f9054906101000a900473ffffffffffffffffffffffffffffffffffffffff1673ffffffffffffffffffffffffffffffffffffffff166338cc48316040518163ffffffff1660e01b81526004016020604051808303815f875af1158015620001a9573d5f803e3d5ffd5b505050506040513d601f19601f82011682018060405250810190620001cf919062000c4b565b73ffffffffffffffffffffffffffffffffffffffff165f8054906101000a900473ffffffffffffffffffffffffffffffffffffffff1673ffffffffffffffffffffffffffffffffffffffff1614620002f25760015f9054906101000a900473ffffffffffffffffffffffffffffffffffffffff1673ffffffffffffffffffffffffffffffffffffffff166338cc48316040518163ffffffff1660e01b81526004016020604051808303815f875af11580156200028d573d5f803e3d5ffd5b505050506040513d601f19601f82011682018060405250810190620002b3919062000c4b565b5f806101000a81548173ffffffffffffffffffffffffffffffffffffffff021916908373ffffffffffffffffffffffffffffffffffffffff1602179055505b5f8054906101000a900473ffffffffffffffffffffffffffffffffffffffff1673ffffffffffffffffffffffffffffffffffffffff1663688dcfd7826040518263ffffffff1660e01b81526004016200034c919062000cb7565b5f604051808303815f87803b15801562000364575f80fd5b505af115801562000377573d5f803e3d5ffd5b5050505050565b5f813b9050919050565b5f62000399620003a060201b60201c565b9050919050565b5f80620003c7731d3b2638a7cc9f2cb3d298a3da7a90b67e5506ed6200037e60201b60201c565b11156200047257731d3b2638a7cc9f2cb3d298a3da7a90b67e5506ed60015f6101000a81548173ffffffffffffffffffffffffffffffffffffffff021916908373ffffffffffffffffffffffffffffffffffffffff160217905550620004686040518060400160405280600b81526020017f6574685f6d61696e6e657400000000000000000000000000000000000000000081525062000bd160201b60201c565b6001905062000bce565b5f6200049873c03a2615d5efaf5f49f60b7bb6583eaec212fdf16200037e60201b60201c565b1115620005435773c03a2615d5efaf5f49f60b7bb6583eaec212fdf160015f6101000a81548173ffffffffffffffffffffffffffffffffffffffff021916908373ffffffffffffffffffffffffffffffffffffffff160217905550620005396040518060400160405280600c81526020017f6574685f726f707374656e33000000000000000000000000000000000000000081525062000bd160201b60201c565b6001905062000bce565b5f6200056973b7a07bcf2ba2f2703b24c0691b5278999c59ac7e6200037e60201b60201c565b1115620006145773b7a07bcf2ba2f2703b24c0691b5278999c59ac7e60015f6101000a81548173ffffffffffffffffffffffffffffffffffffffff021916908373ffffffffffffffffffffffffffffffffffffffff1602179055506200060a6040518060400160405280600981526020017f6574685f6b6f76616e000000000000000000000000000000000000000000000081525062000bd160201b60201c565b6001905062000bce565b5f6200063a73146500cfd35b22e4a392fe0adc06de1a1368ed486200037e60201b60201c565b1115620006e55773146500cfd35b22e4a392fe0adc06de1a1368ed4860015f6101000a81548173ffffffffffffffffffffffffffffffffffffffff021916908373ffffffffffffffffffffffffffffffffffffffff160217905550620006db6040518060400160405280600b81526020017f6574685f72696e6b65627900000000000000000000000000000000000000000081525062000bd160201b60201c565b6001905062000bce565b5f6200070b73a2998efd205fb9d4b4963afb70778d6354ad3a416200037e60201b60201c565b1115620007b65773a2998efd205fb9d4b4963afb70778d6354ad3a4160015f6101000a81548173ffffffffffffffffffffffffffffffffffffffff021916908373ffffffffffffffffffffffffffffffffffffffff160217905550620007ac6040518060400160405280600a81526020017f6574685f676f65726c690000000000000000000000000000000000000000000081525062000bd160201b60201c565b6001905062000bce565b5f620007dc7390a0f94702c9630036fb9846b52bf31a1c991a846200037e60201b60201c565b111562000887577390a0f94702c9630036fb9846b52bf31a1c991a8460015f6101000a81548173ffffffffffffffffffffffffffffffffffffffff021916908373ffffffffffffffffffffffffffffffffffffffff1602179055506200087d6040518060400160405280600b81526020017f6273635f6d61696e6e657400000000000000000000000000000000000000000081525062000bd160201b60201c565b6001905062000bce565b5f620008ad73816ec2af1b56183f82f8c05759e99fec3c3de6096200037e60201b60201c565b1115620009585773816ec2af1b56183f82f8c05759e99fec3c3de60960015f6101000a81548173ffffffffffffffffffffffffffffffffffffffff021916908373ffffffffffffffffffffffffffffffffffffffff1602179055506200094e6040518060400160405280600f81526020017f706f6c79676f6e5f6d61696e6e6574000000000000000000000000000000000081525062000bd160201b60201c565b6001905062000bce565b5f6200097e7314b31a1c66a9f3d18dfac2d123fe8ce5847b7f856200037e60201b60201c565b111562000a29577314b31a1c66a9f3d18dfac2d123fe8ce5847b7f8560015f6101000a81548173ffffffffffffffffffffffffffffffffffffffff021916908373ffffffffffffffffffffffffffffffffffffffff16021790555062000a1f6040518060400160405280600f81526020017f7365706f6c69615f6d61696e6e6574000000000000000000000000000000000081525062000bd160201b60201c565b6001905062000bce565b5f62000a4f736f485c8bf6fc43ea212e93bbf8ce046c7f1cb4756200037e60201b60201c565b111562000ab457736f485c8bf6fc43ea212e93bbf8ce046c7f1cb47560015f6101000a81548173ffffffffffffffffffffffffffffffffffffffff021916908373ffffffffffffffffffffffffffffffffffffffff1602179055506001905062000bce565b5f62000ada7320e12a1f859b3feae5fb2a0a32c18f5a65555bbf6200037e60201b60201c565b111562000b3f577320e12a1f859b3feae5fb2a0a32c18f5a65555bbf60015f6101000a81548173ffffffffffffffffffffffffffffffffffffffff021916908373ffffffffffffffffffffffffffffffffffffffff1602179055506001905062000bce565b5f62000b657351efaf4c8b3c9afbd5ab9f4bbc82784ab6ef8faa6200037e60201b60201c565b111562000bca577351efaf4c8b3c9afbd5ab9f4bbc82784ab6ef8faa60015f6101000a81548173ffffffffffffffffffffffffffffffffffffffff021916908373ffffffffffffffffffffffffffffffffffffffff1602179055506001905062000bce565b5f90505b90565b806002908162000be2919062000f36565b5050565b5f80fd5b5f73ffffffffffffffffffffffffffffffffffffffff82169050919050565b5f62000c158262000bea565b9050919050565b62000c278162000c09565b811462000c32575f80fd5b50565b5f8151905062000c458162000c1c565b92915050565b5f6020828403121562000c635762000c6262000be6565b5b5f62000c728482850162000c35565b91505092915050565b5f7fff0000000000000000000000000000000000000000000000000000000000000082169050919050565b62000cb18162000c7b565b82525050565b5f60208201905062000ccc5f83018462000ca6565b92915050565b5f81519050919050565b7f4e487b71000000000000000000000000000000000000000000000000000000005f52604160045260245ffd5b7f4e487b71000000000000000000000000000000000000000000000000000000005f52602260045260245ffd5b5f600282049050600182168062000d4e57607f821691505b60208210810362000d645762000d6362000d09565b5b50919050565b5f819050815f5260205f209050919050565b5f6020601f8301049050919050565b5f82821b905092915050565b5f6008830262000dc87fffffffffffffffffffffffffffffffffffffffffffffffffffffffffffffffff8262000d8b565b62000dd4868362000d8b565b95508019841693508086168417925050509392505050565b5f819050919050565b5f819050919050565b5f62000e1e62000e1862000e128462000dec565b62000df5565b62000dec565b9050919050565b5f819050919050565b62000e398362000dfe565b62000e5162000e488262000e25565b84845462000d97565b825550505050565b5f90565b62000e6762000e59565b62000e7481848462000e2e565b505050565b5b8181101562000e9b5762000e8f5f8262000e5d565b60018101905062000e7a565b5050565b601f82111562000eea5762000eb48162000d6a565b62000ebf8462000d7c565b8101602085101562000ecf578190505b62000ee762000ede8562000d7c565b83018262000e79565b50505b505050565b5f82821c905092915050565b5f62000f0c5f198460080262000eef565b1980831691505092915050565b5f62000f26838362000efb565b9150826002028217905092915050565b62000f418262000cd2565b67ffffffffffffffff81111562000f5d5762000f5c62000cdc565b5b62000f69825462000d36565b62000f7682828562000e9f565b5f60209050601f83116001811462000fac575f841562000f97578287015190505b62000fa3858262000f19565b86555062001012565b601f19841662000fbc8662000d6a565b5f5b8281101562000fe55784890151825560018201915060208501945060208101905062000fbe565b8683101562001005578489015162001001601f89168262000efb565b8355505b6001600288020188555050505b505050505050565b610b5a80620010285f395ff3fe608060405234801561000f575f80fd5b5060043610610055575f3560e01c806305f0872014610059578063077f3ee8146100775780632109bab514610095578063871e811c146100b3578063b7423646146100e3575b5f80fd5b6100616100ff565b60405161006e91906106ad565b60405180910390f35b61007f61018b565b60405161008c91906106ad565b60405180910390f35b61009d610217565b6040516100aa91906106ad565b60405180910390f35b6100cd60048036038101906100c8919061080a565b6102a3565b6040516100da91906108c8565b60405180910390f35b6100fd60048036038101906100f8919061080a565b6104b3565b005b6006805461010c9061090e565b80601f01602080910402602001604051908101604052809291908181526020018280546101389061090e565b80156101835780601f1061015a57610100808354040283529160200191610183565b820191905f5260205f20905b81548152906001019060200180831161016657829003601f168201915b505050505081565b600580546101989061090e565b80601f01602080910402602001604051908101604052809291908181526020018280546101c49061090e565b801561020f5780601f106101e65761010080835404028352916020019161020f565b820191905f5260205f20905b8154815290600101906020018083116101f257829003601f168201915b505050505081565b600780546102249061090e565b80601f01602080910402602001604051908101604052809291908181526020018280546102509061090e565b801561029b5780601f106102725761010080835404028352916020019161029b565b820191905f5260205f20905b81548152906001019060200180831161027e57829003601f168201915b505050505081565b5f8061033785600580546102b69061090e565b80601f01602080910402602001604051908101604052809291908181526020018280546102e29061090e565b801561032d5780601f106103045761010080835404028352916020019161032d565b820191905f5260205f20905b81548152906001019060200180831161031057829003601f168201915b50505050506105cb565b80156103d157506103d0846006805461034f9061090e565b80601f016020809104026020016040519081016040528092919081815260200182805461037b9061090e565b80156103c65780601f1061039d576101008083540402835291602001916103c6565b820191905f5260205f20905b8154815290600101906020018083116103a957829003601f168201915b50505050506105cb565b5b801561046b575061046a83600780546103e99061090e565b80601f01602080910402602001604051908101604052809291908181526020018280546104159061090e565b80156104605780601f1061043757610100808354040283529160200191610460565b820191905f5260205f20905b81548152906001019060200180831161044357829003601f168201915b50505050506105cb565b5b9050806104a8577f5e88cc8219408f24b783d02ddbce8827ddda7d0c8ac16970155e2c82c8caf35660405161049f906109ae565b60405180910390a15b809150509392505050565b5f8383836040516020016104c993929190610a06565b60405160208183030381529060405290505f816040516020016104ec9190610a36565b6040516020818303038152906040528051906020012090507fc4dc360d0a9c0677a3379ae0a3d81e887f761e65fdf3d7e00859d1bcd3c4738960405161053190610abc565b60405180910390a160085f9054906101000a900473ffffffffffffffffffffffffffffffffffffffff1673ffffffffffffffffffffffffffffffffffffffff1663bf5aa7ba8686866040518463ffffffff1660e01b815260040161059793929190610ada565b5f604051808303815f87803b1580156105ae575f80fd5b505af11580156105c0573d5f803e3d5ffd5b505050505050505050565b5f816040516020016105dd9190610a36565b60405160208183030381529060405280519060200120836040516020016106049190610a36565b6040516020818303038152906040528051906020012014905092915050565b5f81519050919050565b5f82825260208201905092915050565b5f5b8381101561065a57808201518184015260208101905061063f565b5f8484015250505050565b5f601f19601f8301169050919050565b5f61067f82610623565b610689818561062d565b935061069981856020860161063d565b6106a281610665565b840191505092915050565b5f6020820190508181035f8301526106c58184610675565b905092915050565b5f604051905090565b5f80fd5b5f80fd5b5f80fd5b5f80fd5b7f4e487b71000000000000000000000000000000000000000000000000000000005f52604160045260245ffd5b61071c82610665565b810181811067ffffffffffffffff8211171561073b5761073a6106e6565b5b80604052505050565b5f61074d6106cd565b90506107598282610713565b919050565b5f67ffffffffffffffff821115610778576107776106e6565b5b61078182610665565b9050602081019050919050565b828183375f83830152505050565b5f6107ae6107a98461075e565b610744565b9050828152602081018484840111156107ca576107c96106e2565b5b6107d584828561078e565b509392505050565b5f82601f8301126107f1576107f06106de565b5b813561080184826020860161079c565b91505092915050565b5f805f60608486031215610821576108206106d6565b5b5f84013567ffffffffffffffff81111561083e5761083d6106da565b5b61084a868287016107dd565b935050602084013567ffffffffffffffff81111561086b5761086a6106da565b5b610877868287016107dd565b925050604084013567ffffffffffffffff811115610898576108976106da565b5b6108a4868287016107dd565b9150509250925092565b5f8115159050919050565b6108c2816108ae565b82525050565b5f6020820190506108db5f8301846108b9565b92915050565b7f4e487b71000000000000000000000000000000000000000000000000000000005f52602260045260245ffd5b5f600282049050600182168061092557607f821691505b602082108103610938576109376108e1565b5b50919050565b7f4e65777320766572696669636174696f6e206661696c656420666f72207468655f8201527f2070726f766964656420646174612e0000000000000000000000000000000000602082015250565b5f610998602f8361062d565b91506109a38261093e565b604082019050919050565b5f6020820190508181035f8301526109c58161098c565b9050919050565b5f81905092915050565b5f6109e082610623565b6109ea81856109cc565b93506109fa81856020860161063d565b80840191505092915050565b5f610a1182866109d6565b9150610a1d82856109d6565b9150610a2982846109d6565b9150819050949350505050565b5f610a4182846109d6565b915081905092915050565b7f50726f7661626c652071756572792073656e742c206177616974696e672076655f8201527f72696669636174696f6e2e2e2e00000000000000000000000000000000000000602082015250565b5f610aa6602d8361062d565b9150610ab182610a4c565b604082019050919050565b5f6020820190508181035f830152610ad381610a9a565b9050919050565b5f6060820190508181035f830152610af28186610675565b90508181036020830152610b068185610675565b90508181036040830152610b1a8184610675565b905094935050505056fea264697066735822122045a1cf14522b39d3abd55562d5824a0b32bcaa14fffbce76c44fb7b95b216ac564736f6c63430008140033",
			"opcodes": "PUSH1 0x80 PUSH1 0x40 MSTORE CALLVALUE DUP1 ISZERO PUSH3 0x10 JUMPI PUSH0 DUP1 REVERT JUMPDEST POP PUSH1 0x40 MLOAD PUSH3 0x1B82 CODESIZE SUB DUP1 PUSH3 0x1B82 DUP4 CODECOPY DUP2 DUP2 ADD PUSH1 0x40 MSTORE DUP2 ADD SWAP1 PUSH3 0x36 SWAP2 SWAP1 PUSH3 0xC4B JUMP JUMPDEST PUSH3 0x51 PUSH1 0x1 PUSH1 0xF8 SHL PUSH1 0x10 PUSH1 0xF8 SHL OR PUSH3 0x98 PUSH1 0x20 SHL PUSH1 0x20 SHR JUMP JUMPDEST DUP1 PUSH1 0x8 PUSH0 PUSH2 0x100 EXP DUP2 SLOAD DUP2 PUSH20 0xFFFFFFFFFFFFFFFFFFFFFFFFFFFFFFFFFFFFFFFF MUL NOT AND SWAP1 DUP4 PUSH20 0xFFFFFFFFFFFFFFFFFFFFFFFFFFFFFFFFFFFFFFFF AND MUL OR SWAP1 SSTORE POP POP PUSH3 0x101A JUMP JUMPDEST PUSH0 PUSH20 0xFFFFFFFFFFFFFFFFFFFFFFFFFFFFFFFFFFFFFFFF AND PUSH1 0x1 PUSH0 SWAP1 SLOAD SWAP1 PUSH2 0x100 EXP SWAP1 DIV PUSH20 0xFFFFFFFFFFFFFFFFFFFFFFFFFFFFFFFFFFFFFFFF AND PUSH20 0xFFFFFFFFFFFFFFFFFFFFFFFFFFFFFFFFFFFFFFFF AND EQ DUP1 PUSH3 0x124 JUMPI POP PUSH0 PUSH3 0x122 PUSH1 0x1 PUSH0 SWAP1 SLOAD SWAP1 PUSH2 0x100 EXP SWAP1 DIV PUSH20 0xFFFFFFFFFFFFFFFFFFFFFFFFFFFFFFFFFFFFFFFF AND PUSH3 0x37E PUSH1 0x20 SHL PUSH1 0x20 SHR JUMP JUMPDEST EQ JUMPDEST ISZERO PUSH3 0x13D JUMPI PUSH3 0x13B PUSH0 PUSH3 0x388 PUSH1 0x20 SHL PUSH1 0x20 SHR JUMP JUMPDEST POP JUMPDEST PUSH1 0x1 PUSH0 SWAP1 SLOAD SWAP1 PUSH2 0x100 EXP SWAP1 DIV PUSH20 0xFFFFFFFFFFFFFFFFFFFFFFFFFFFFFFFFFFFFFFFF AND PUSH20 0xFFFFFFFFFFFFFFFFFFFFFFFFFFFFFFFFFFFFFFFF AND PUSH4 0x38CC4831 PUSH1 0x40 MLOAD DUP2 PUSH4 0xFFFFFFFF AND PUSH1 0xE0 SHL DUP2 MSTORE PUSH1 0x4 ADD PUSH1 0x20 PUSH1 0x40 MLOAD DUP1 DUP4 SUB DUP2 PUSH0 DUP8 GAS CALL ISZERO DUP1 ISZERO PUSH3 0x1A9 JUMPI RETURNDATASIZE PUSH0 DUP1 RETURNDATACOPY RETURNDATASIZE PUSH0 REVERT JUMPDEST POP POP POP POP PUSH1 0x40 MLOAD RETURNDATASIZE PUSH1 0x1F NOT PUSH1 0x1F DUP3 ADD AND DUP3 ADD DUP1 PUSH1 0x40 MSTORE POP DUP2 ADD SWAP1 PUSH3 0x1CF SWAP2 SWAP1 PUSH3 0xC4B JUMP JUMPDEST PUSH20 0xFFFFFFFFFFFFFFFFFFFFFFFFFFFFFFFFFFFFFFFF AND PUSH0 DUP1 SLOAD SWAP1 PUSH2 0x100 EXP SWAP1 DIV PUSH20 0xFFFFFFFFFFFFFFFFFFFFFFFFFFFFFFFFFFFFFFFF AND PUSH20 0xFFFFFFFFFFFFFFFFFFFFFFFFFFFFFFFFFFFFFFFF AND EQ PUSH3 0x2F2 JUMPI PUSH1 0x1 PUSH0 SWAP1 SLOAD SWAP1 PUSH2 0x100 EXP SWAP1 DIV PUSH20 0xFFFFFFFFFFFFFFFFFFFFFFFFFFFFFFFFFFFFFFFF AND PUSH20 0xFFFFFFFFFFFFFFFFFFFFFFFFFFFFFFFFFFFFFFFF AND PUSH4 0x38CC4831 PUSH1 0x40 MLOAD DUP2 PUSH4 0xFFFFFFFF AND PUSH1 0xE0 SHL DUP2 MSTORE PUSH1 0x4 ADD PUSH1 0x20 PUSH1 0x40 MLOAD DUP1 DUP4 SUB DUP2 PUSH0 DUP8 GAS CALL ISZERO DUP1 ISZERO PUSH3 0x28D JUMPI RETURNDATASIZE PUSH0 DUP1 RETURNDATACOPY RETURNDATASIZE PUSH0 REVERT JUMPDEST POP POP POP POP PUSH1 0x40 MLOAD RETURNDATASIZE PUSH1 0x1F NOT PUSH1 0x1F DUP3 ADD AND DUP3 ADD DUP1 PUSH1 0x40 MSTORE POP DUP2 ADD SWAP1 PUSH3 0x2B3 SWAP2 SWAP1 PUSH3 0xC4B JUMP JUMPDEST PUSH0 DUP1 PUSH2 0x100 EXP DUP2 SLOAD DUP2 PUSH20 0xFFFFFFFFFFFFFFFFFFFFFFFFFFFFFFFFFFFFFFFF MUL NOT AND SWAP1 DUP4 PUSH20 0xFFFFFFFFFFFFFFFFFFFFFFFFFFFFFFFFFFFFFFFF AND MUL OR SWAP1 SSTORE POP JUMPDEST PUSH0 DUP1 SLOAD SWAP1 PUSH2 0x100 EXP SWAP1 DIV PUSH20 0xFFFFFFFFFFFFFFFFFFFFFFFFFFFFFFFFFFFFFFFF AND PUSH20 0xFFFFFFFFFFFFFFFFFFFFFFFFFFFFFFFFFFFFFFFF AND PUSH4 0x688DCFD7 DUP3 PUSH1 0x40 MLOAD DUP3 PUSH4 0xFFFFFFFF AND PUSH1 0xE0 SHL DUP2 MSTORE PUSH1 0x4 ADD PUSH3 0x34C SWAP2 SWAP1 PUSH3 0xCB7 JUMP JUMPDEST PUSH0 PUSH1 0x40 MLOAD DUP1 DUP4 SUB DUP2 PUSH0 DUP8 DUP1 EXTCODESIZE ISZERO DUP1 ISZERO PUSH3 0x364 JUMPI PUSH0 DUP1 REVERT JUMPDEST POP GAS CALL ISZERO DUP1 ISZERO PUSH3 0x377 JUMPI RETURNDATASIZE PUSH0 DUP1 RETURNDATACOPY RETURNDATASIZE PUSH0 REVERT JUMPDEST POP POP POP POP POP JUMP JUMPDEST PUSH0 DUP2 EXTCODESIZE SWAP1 POP SWAP2 SWAP1 POP JUMP JUMPDEST PUSH0 PUSH3 0x399 PUSH3 0x3A0 PUSH1 0x20 SHL PUSH1 0x20 SHR JUMP JUMPDEST SWAP1 POP SWAP2 SWAP1 POP JUMP JUMPDEST PUSH0 DUP1 PUSH3 0x3C7 PUSH20 0x1D3B2638A7CC9F2CB3D298A3DA7A90B67E5506ED PUSH3 0x37E PUSH1 0x20 SHL PUSH1 0x20 SHR JUMP JUMPDEST GT ISZERO PUSH3 0x472 JUMPI PUSH20 0x1D3B2638A7CC9F2CB3D298A3DA7A90B67E5506ED PUSH1 0x1 PUSH0 PUSH2 0x100 EXP DUP2 SLOAD DUP2 PUSH20 0xFFFFFFFFFFFFFFFFFFFFFFFFFFFFFFFFFFFFFFFF MUL NOT AND SWAP1 DUP4 PUSH20 0xFFFFFFFFFFFFFFFFFFFFFFFFFFFFFFFFFFFFFFFF AND MUL OR SWAP1 SSTORE POP PUSH3 0x468 PUSH1 0x40 MLOAD DUP1 PUSH1 0x40 ADD PUSH1 0x40 MSTORE DUP1 PUSH1 0xB DUP2 MSTORE PUSH1 0x20 ADD PUSH32 0x6574685F6D61696E6E6574000000000000000000000000000000000000000000 DUP2 MSTORE POP PUSH3 0xBD1 PUSH1 0x20 SHL PUSH1 0x20 SHR JUMP JUMPDEST PUSH1 0x1 SWAP1 POP PUSH3 0xBCE JUMP JUMPDEST PUSH0 PUSH3 0x498 PUSH20 0xC03A2615D5EFAF5F49F60B7BB6583EAEC212FDF1 PUSH3 0x37E PUSH1 0x20 SHL PUSH1 0x20 SHR JUMP JUMPDEST GT ISZERO PUSH3 0x543 JUMPI PUSH20 0xC03A2615D5EFAF5F49F60B7BB6583EAEC212FDF1 PUSH1 0x1 PUSH0 PUSH2 0x100 EXP DUP2 SLOAD DUP2 PUSH20 0xFFFFFFFFFFFFFFFFFFFFFFFFFFFFFFFFFFFFFFFF MUL NOT AND SWAP1 DUP4 PUSH20 0xFFFFFFFFFFFFFFFFFFFFFFFFFFFFFFFFFFFFFFFF AND MUL OR SWAP1 SSTORE POP PUSH3 0x539 PUSH1 0x40 MLOAD DUP1 PUSH1 0x40 ADD PUSH1 0x40 MSTORE DUP1 PUSH1 0xC DUP2 MSTORE PUSH1 0x20 ADD PUSH32 0x6574685F726F707374656E330000000000000000000000000000000000000000 DUP2 MSTORE POP PUSH3 0xBD1 PUSH1 0x20 SHL PUSH1 0x20 SHR JUMP JUMPDEST PUSH1 0x1 SWAP1 POP PUSH3 0xBCE JUMP JUMPDEST PUSH0 PUSH3 0x569 PUSH20 0xB7A07BCF2BA2F2703B24C0691B5278999C59AC7E PUSH3 0x37E PUSH1 0x20 SHL PUSH1 0x20 SHR JUMP JUMPDEST GT ISZERO PUSH3 0x614 JUMPI PUSH20 0xB7A07BCF2BA2F2703B24C0691B5278999C59AC7E PUSH1 0x1 PUSH0 PUSH2 0x100 EXP DUP2 SLOAD DUP2 PUSH20 0xFFFFFFFFFFFFFFFFFFFFFFFFFFFFFFFFFFFFFFFF MUL NOT AND SWAP1 DUP4 PUSH20 0xFFFFFFFFFFFFFFFFFFFFFFFFFFFFFFFFFFFFFFFF AND MUL OR SWAP1 SSTORE POP PUSH3 0x60A PUSH1 0x40 MLOAD DUP1 PUSH1 0x40 ADD PUSH1 0x40 MSTORE DUP1 PUSH1 0x9 DUP2 MSTORE PUSH1 0x20 ADD PUSH32 0x6574685F6B6F76616E0000000000000000000000000000000000000000000000 DUP2 MSTORE POP PUSH3 0xBD1 PUSH1 0x20 SHL PUSH1 0x20 SHR JUMP JUMPDEST PUSH1 0x1 SWAP1 POP PUSH3 0xBCE JUMP JUMPDEST PUSH0 PUSH3 0x63A PUSH20 0x146500CFD35B22E4A392FE0ADC06DE1A1368ED48 PUSH3 0x37E PUSH1 0x20 SHL PUSH1 0x20 SHR JUMP JUMPDEST GT ISZERO PUSH3 0x6E5 JUMPI PUSH20 0x146500CFD35B22E4A392FE0ADC06DE1A1368ED48 PUSH1 0x1 PUSH0 PUSH2 0x100 EXP DUP2 SLOAD DUP2 PUSH20 0xFFFFFFFFFFFFFFFFFFFFFFFFFFFFFFFFFFFFFFFF MUL NOT AND SWAP1 DUP4 PUSH20 0xFFFFFFFFFFFFFFFFFFFFFFFFFFFFFFFFFFFFFFFF AND MUL OR SWAP1 SSTORE POP PUSH3 0x6DB PUSH1 0x40 MLOAD DUP1 PUSH1 0x40 ADD PUSH1 0x40 MSTORE DUP1 PUSH1 0xB DUP2 MSTORE PUSH1 0x20 ADD PUSH32 0x6574685F72696E6B656279000000000000000000000000000000000000000000 DUP2 MSTORE POP PUSH3 0xBD1 PUSH1 0x20 SHL PUSH1 0x20 SHR JUMP JUMPDEST PUSH1 0x1 SWAP1 POP PUSH3 0xBCE JUMP JUMPDEST PUSH0 PUSH3 0x70B PUSH20 0xA2998EFD205FB9D4B4963AFB70778D6354AD3A41 PUSH3 0x37E PUSH1 0x20 SHL PUSH1 0x20 SHR JUMP JUMPDEST GT ISZERO PUSH3 0x7B6 JUMPI PUSH20 0xA2998EFD205FB9D4B4963AFB70778D6354AD3A41 PUSH1 0x1 PUSH0 PUSH2 0x100 EXP DUP2 SLOAD DUP2 PUSH20 0xFFFFFFFFFFFFFFFFFFFFFFFFFFFFFFFFFFFFFFFF MUL NOT AND SWAP1 DUP4 PUSH20 0xFFFFFFFFFFFFFFFFFFFFFFFFFFFFFFFFFFFFFFFF AND MUL OR SWAP1 SSTORE POP PUSH3 0x7AC PUSH1 0x40 MLOAD DUP1 PUSH1 0x40 ADD PUSH1 0x40 MSTORE DUP1 PUSH1 0xA DUP2 MSTORE PUSH1 0x20 ADD PUSH32 0x6574685F676F65726C6900000000000000000000000000000000000000000000 DUP2 MSTORE POP PUSH3 0xBD1 PUSH1 0x20 SHL PUSH1 0x20 SHR JUMP JUMPDEST PUSH1 0x1 SWAP1 POP PUSH3 0xBCE JUMP JUMPDEST PUSH0 PUSH3 0x7DC PUSH20 0x90A0F94702C9630036FB9846B52BF31A1C991A84 PUSH3 0x37E PUSH1 0x20 SHL PUSH1 0x20 SHR JUMP JUMPDEST GT ISZERO PUSH3 0x887 JUMPI PUSH20 0x90A0F94702C9630036FB9846B52BF31A1C991A84 PUSH1 0x1 PUSH0 PUSH2 0x100 EXP DUP2 SLOAD DUP2 PUSH20 0xFFFFFFFFFFFFFFFFFFFFFFFFFFFFFFFFFFFFFFFF MUL NOT AND SWAP1 DUP4 PUSH20 0xFFFFFFFFFFFFFFFFFFFFFFFFFFFFFFFFFFFFFFFF AND MUL OR SWAP1 SSTORE POP PUSH3 0x87D PUSH1 0x40 MLOAD DUP1 PUSH1 0x40 ADD PUSH1 0x40 MSTORE DUP1 PUSH1 0xB DUP2 MSTORE PUSH1 0x20 ADD PUSH32 0x6273635F6D61696E6E6574000000000000000000000000000000000000000000 DUP2 MSTORE POP PUSH3 0xBD1 PUSH1 0x20 SHL PUSH1 0x20 SHR JUMP JUMPDEST PUSH1 0x1 SWAP1 POP PUSH3 0xBCE JUMP JUMPDEST PUSH0 PUSH3 0x8AD PUSH20 0x816EC2AF1B56183F82F8C05759E99FEC3C3DE609 PUSH3 0x37E PUSH1 0x20 SHL PUSH1 0x20 SHR JUMP JUMPDEST GT ISZERO PUSH3 0x958 JUMPI PUSH20 0x816EC2AF1B56183F82F8C05759E99FEC3C3DE609 PUSH1 0x1 PUSH0 PUSH2 0x100 EXP DUP2 SLOAD DUP2 PUSH20 0xFFFFFFFFFFFFFFFFFFFFFFFFFFFFFFFFFFFFFFFF MUL NOT AND SWAP1 DUP4 PUSH20 0xFFFFFFFFFFFFFFFFFFFFFFFFFFFFFFFFFFFFFFFF AND MUL OR SWAP1 SSTORE POP PUSH3 0x94E PUSH1 0x40 MLOAD DUP1 PUSH1 0x40 ADD PUSH1 0x40 MSTORE DUP1 PUSH1 0xF DUP2 MSTORE PUSH1 0x20 ADD PUSH32 0x706F6C79676F6E5F6D61696E6E65740000000000000000000000000000000000 DUP2 MSTORE POP PUSH3 0xBD1 PUSH1 0x20 SHL PUSH1 0x20 SHR JUMP JUMPDEST PUSH1 0x1 SWAP1 POP PUSH3 0xBCE JUMP JUMPDEST PUSH0 PUSH3 0x97E PUSH20 0x14B31A1C66A9F3D18DFAC2D123FE8CE5847B7F85 PUSH3 0x37E PUSH1 0x20 SHL PUSH1 0x20 SHR JUMP JUMPDEST GT ISZERO PUSH3 0xA29 JUMPI PUSH20 0x14B31A1C66A9F3D18DFAC2D123FE8CE5847B7F85 PUSH1 0x1 PUSH0 PUSH2 0x100 EXP DUP2 SLOAD DUP2 PUSH20 0xFFFFFFFFFFFFFFFFFFFFFFFFFFFFFFFFFFFFFFFF MUL NOT AND SWAP1 DUP4 PUSH20 0xFFFFFFFFFFFFFFFFFFFFFFFFFFFFFFFFFFFFFFFF AND MUL OR SWAP1 SSTORE POP PUSH3 0xA1F PUSH1 0x40 MLOAD DUP1 PUSH1 0x40 ADD PUSH1 0x40 MSTORE DUP1 PUSH1 0xF DUP2 MSTORE PUSH1 0x20 ADD PUSH32 0x7365706F6C69615F6D61696E6E65740000000000000000000000000000000000 DUP2 MSTORE POP PUSH3 0xBD1 PUSH1 0x20 SHL PUSH1 0x20 SHR JUMP JUMPDEST PUSH1 0x1 SWAP1 POP PUSH3 0xBCE JUMP JUMPDEST PUSH0 PUSH3 0xA4F PUSH20 0x6F485C8BF6FC43EA212E93BBF8CE046C7F1CB475 PUSH3 0x37E PUSH1 0x20 SHL PUSH1 0x20 SHR JUMP JUMPDEST GT ISZERO PUSH3 0xAB4 JUMPI PUSH20 0x6F485C8BF6FC43EA212E93BBF8CE046C7F1CB475 PUSH1 0x1 PUSH0 PUSH2 0x100 EXP DUP2 SLOAD DUP2 PUSH20 0xFFFFFFFFFFFFFFFFFFFFFFFFFFFFFFFFFFFFFFFF MUL NOT AND SWAP1 DUP4 PUSH20 0xFFFFFFFFFFFFFFFFFFFFFFFFFFFFFFFFFFFFFFFF AND MUL OR SWAP1 SSTORE POP PUSH1 0x1 SWAP1 POP PUSH3 0xBCE JUMP JUMPDEST PUSH0 PUSH3 0xADA PUSH20 0x20E12A1F859B3FEAE5FB2A0A32C18F5A65555BBF PUSH3 0x37E PUSH1 0x20 SHL PUSH1 0x20 SHR JUMP JUMPDEST GT ISZERO PUSH3 0xB3F JUMPI PUSH20 0x20E12A1F859B3FEAE5FB2A0A32C18F5A65555BBF PUSH1 0x1 PUSH0 PUSH2 0x100 EXP DUP2 SLOAD DUP2 PUSH20 0xFFFFFFFFFFFFFFFFFFFFFFFFFFFFFFFFFFFFFFFF MUL NOT AND SWAP1 DUP4 PUSH20 0xFFFFFFFFFFFFFFFFFFFFFFFFFFFFFFFFFFFFFFFF AND MUL OR SWAP1 SSTORE POP PUSH1 0x1 SWAP1 POP PUSH3 0xBCE JUMP JUMPDEST PUSH0 PUSH3 0xB65 PUSH20 0x51EFAF4C8B3C9AFBD5AB9F4BBC82784AB6EF8FAA PUSH3 0x37E PUSH1 0x20 SHL PUSH1 0x20 SHR JUMP JUMPDEST GT ISZERO PUSH3 0xBCA JUMPI PUSH20 0x51EFAF4C8B3C9AFBD5AB9F4BBC82784AB6EF8FAA PUSH1 0x1 PUSH0 PUSH2 0x100 EXP DUP2 SLOAD DUP2 PUSH20 0xFFFFFFFFFFFFFFFFFFFFFFFFFFFFFFFFFFFFFFFF MUL NOT AND SWAP1 DUP4 PUSH20 0xFFFFFFFFFFFFFFFFFFFFFFFFFFFFFFFFFFFFFFFF AND MUL OR SWAP1 SSTORE POP PUSH1 0x1 SWAP1 POP PUSH3 0xBCE JUMP JUMPDEST PUSH0 SWAP1 POP JUMPDEST SWAP1 JUMP JUMPDEST DUP1 PUSH1 0x2 SWAP1 DUP2 PUSH3 0xBE2 SWAP2 SWAP1 PUSH3 0xF36 JUMP JUMPDEST POP POP JUMP JUMPDEST PUSH0 DUP1 REVERT JUMPDEST PUSH0 PUSH20 0xFFFFFFFFFFFFFFFFFFFFFFFFFFFFFFFFFFFFFFFF DUP3 AND SWAP1 POP SWAP2 SWAP1 POP JUMP JUMPDEST PUSH0 PUSH3 0xC15 DUP3 PUSH3 0xBEA JUMP JUMPDEST SWAP1 POP SWAP2 SWAP1 POP JUMP JUMPDEST PUSH3 0xC27 DUP2 PUSH3 0xC09 JUMP JUMPDEST DUP2 EQ PUSH3 0xC32 JUMPI PUSH0 DUP1 REVERT JUMPDEST POP JUMP JUMPDEST PUSH0 DUP2 MLOAD SWAP1 POP PUSH3 0xC45 DUP2 PUSH3 0xC1C JUMP JUMPDEST SWAP3 SWAP2 POP POP JUMP JUMPDEST PUSH0 PUSH1 0x20 DUP3 DUP5 SUB SLT ISZERO PUSH3 0xC63 JUMPI PUSH3 0xC62 PUSH3 0xBE6 JUMP JUMPDEST JUMPDEST PUSH0 PUSH3 0xC72 DUP5 DUP3 DUP6 ADD PUSH3 0xC35 JUMP JUMPDEST SWAP2 POP POP SWAP3 SWAP2 POP POP JUMP JUMPDEST PUSH0 PUSH32 0xFF00000000000000000000000000000000000000000000000000000000000000 DUP3 AND SWAP1 POP SWAP2 SWAP1 POP JUMP JUMPDEST PUSH3 0xCB1 DUP2 PUSH3 0xC7B JUMP JUMPDEST DUP3 MSTORE POP POP JUMP JUMPDEST PUSH0 PUSH1 0x20 DUP3 ADD SWAP1 POP PUSH3 0xCCC PUSH0 DUP4 ADD DUP5 PUSH3 0xCA6 JUMP JUMPDEST SWAP3 SWAP2 POP POP JUMP JUMPDEST PUSH0 DUP2 MLOAD SWAP1 POP SWAP2 SWAP1 POP JUMP JUMPDEST PUSH32 0x4E487B7100000000000000000000000000000000000000000000000000000000 PUSH0 MSTORE PUSH1 0x41 PUSH1 0x4 MSTORE PUSH1 0x24 PUSH0 REVERT JUMPDEST PUSH32 0x4E487B7100000000000000000000000000000000000000000000000000000000 PUSH0 MSTORE PUSH1 0x22 PUSH1 0x4 MSTORE PUSH1 0x24 PUSH0 REVERT JUMPDEST PUSH0 PUSH1 0x2 DUP3 DIV SWAP1 POP PUSH1 0x1 DUP3 AND DUP1 PUSH3 0xD4E JUMPI PUSH1 0x7F DUP3 AND SWAP2 POP JUMPDEST PUSH1 0x20 DUP3 LT DUP2 SUB PUSH3 0xD64 JUMPI PUSH3 0xD63 PUSH3 0xD09 JUMP JUMPDEST JUMPDEST POP SWAP2 SWAP1 POP JUMP JUMPDEST PUSH0 DUP2 SWAP1 POP DUP2 PUSH0 MSTORE PUSH1 0x20 PUSH0 KECCAK256 SWAP1 POP SWAP2 SWAP1 POP JUMP JUMPDEST PUSH0 PUSH1 0x20 PUSH1 0x1F DUP4 ADD DIV SWAP1 POP SWAP2 SWAP1 POP JUMP JUMPDEST PUSH0 DUP3 DUP3 SHL SWAP1 POP SWAP3 SWAP2 POP POP JUMP JUMPDEST PUSH0 PUSH1 0x8 DUP4 MUL PUSH3 0xDC8 PUSH32 0xFFFFFFFFFFFFFFFFFFFFFFFFFFFFFFFFFFFFFFFFFFFFFFFFFFFFFFFFFFFFFFFF DUP3 PUSH3 0xD8B JUMP JUMPDEST PUSH3 0xDD4 DUP7 DUP4 PUSH3 0xD8B JUMP JUMPDEST SWAP6 POP DUP1 NOT DUP5 AND SWAP4 POP DUP1 DUP7 AND DUP5 OR SWAP3 POP POP POP SWAP4 SWAP3 POP POP POP JUMP JUMPDEST PUSH0 DUP2 SWAP1 POP SWAP2 SWAP1 POP JUMP JUMPDEST PUSH0 DUP2 SWAP1 POP SWAP2 SWAP1 POP JUMP JUMPDEST PUSH0 PUSH3 0xE1E PUSH3 0xE18 PUSH3 0xE12 DUP5 PUSH3 0xDEC JUMP JUMPDEST PUSH3 0xDF5 JUMP JUMPDEST PUSH3 0xDEC JUMP JUMPDEST SWAP1 POP SWAP2 SWAP1 POP JUMP JUMPDEST PUSH0 DUP2 SWAP1 POP SWAP2 SWAP1 POP JUMP JUMPDEST PUSH3 0xE39 DUP4 PUSH3 0xDFE JUMP JUMPDEST PUSH3 0xE51 PUSH3 0xE48 DUP3 PUSH3 0xE25 JUMP JUMPDEST DUP5 DUP5 SLOAD PUSH3 0xD97 JUMP JUMPDEST DUP3 SSTORE POP POP POP POP JUMP JUMPDEST PUSH0 SWAP1 JUMP JUMPDEST PUSH3 0xE67 PUSH3 0xE59 JUMP JUMPDEST PUSH3 0xE74 DUP2 DUP5 DUP5 PUSH3 0xE2E JUMP JUMPDEST POP POP POP JUMP JUMPDEST JUMPDEST DUP2 DUP2 LT ISZERO PUSH3 0xE9B JUMPI PUSH3 0xE8F PUSH0 DUP3 PUSH3 0xE5D JUMP JUMPDEST PUSH1 0x1 DUP2 ADD SWAP1 POP PUSH3 0xE7A JUMP JUMPDEST POP POP JUMP JUMPDEST PUSH1 0x1F DUP3 GT ISZERO PUSH3 0xEEA JUMPI PUSH3 0xEB4 DUP2 PUSH3 0xD6A JUMP JUMPDEST PUSH3 0xEBF DUP5 PUSH3 0xD7C JUMP JUMPDEST DUP2 ADD PUSH1 0x20 DUP6 LT ISZERO PUSH3 0xECF JUMPI DUP2 SWAP1 POP JUMPDEST PUSH3 0xEE7 PUSH3 0xEDE DUP6 PUSH3 0xD7C JUMP JUMPDEST DUP4 ADD DUP3 PUSH3 0xE79 JUMP JUMPDEST POP POP JUMPDEST POP POP POP JUMP JUMPDEST PUSH0 DUP3 DUP3 SHR SWAP1 POP SWAP3 SWAP2 POP POP JUMP JUMPDEST PUSH0 PUSH3 0xF0C PUSH0 NOT DUP5 PUSH1 0x8 MUL PUSH3 0xEEF JUMP JUMPDEST NOT DUP1 DUP4 AND SWAP2 POP POP SWAP3 SWAP2 POP POP JUMP JUMPDEST PUSH0 PUSH3 0xF26 DUP4 DUP4 PUSH3 0xEFB JUMP JUMPDEST SWAP2 POP DUP3 PUSH1 0x2 MUL DUP3 OR SWAP1 POP SWAP3 SWAP2 POP POP JUMP JUMPDEST PUSH3 0xF41 DUP3 PUSH3 0xCD2 JUMP JUMPDEST PUSH8 0xFFFFFFFFFFFFFFFF DUP2 GT ISZERO PUSH3 0xF5D JUMPI PUSH3 0xF5C PUSH3 0xCDC JUMP JUMPDEST JUMPDEST PUSH3 0xF69 DUP3 SLOAD PUSH3 0xD36 JUMP JUMPDEST PUSH3 0xF76 DUP3 DUP3 DUP6 PUSH3 0xE9F JUMP JUMPDEST PUSH0 PUSH1 0x20 SWAP1 POP PUSH1 0x1F DUP4 GT PUSH1 0x1 DUP2 EQ PUSH3 0xFAC JUMPI PUSH0 DUP5 ISZERO PUSH3 0xF97 JUMPI DUP3 DUP8 ADD MLOAD SWAP1 POP JUMPDEST PUSH3 0xFA3 DUP6 DUP3 PUSH3 0xF19 JUMP JUMPDEST DUP7 SSTORE POP PUSH3 0x1012 JUMP JUMPDEST PUSH1 0x1F NOT DUP5 AND PUSH3 0xFBC DUP7 PUSH3 0xD6A JUMP JUMPDEST PUSH0 JUMPDEST DUP3 DUP2 LT ISZERO PUSH3 0xFE5 JUMPI DUP5 DUP10 ADD MLOAD DUP3 SSTORE PUSH1 0x1 DUP3 ADD SWAP2 POP PUSH1 0x20 DUP6 ADD SWAP5 POP PUSH1 0x20 DUP2 ADD SWAP1 POP PUSH3 0xFBE JUMP JUMPDEST DUP7 DUP4 LT ISZERO PUSH3 0x1005 JUMPI DUP5 DUP10 ADD MLOAD PUSH3 0x1001 PUSH1 0x1F DUP10 AND DUP3 PUSH3 0xEFB JUMP JUMPDEST DUP4 SSTORE POP JUMPDEST PUSH1 0x1 PUSH1 0x2 DUP9 MUL ADD DUP9 SSTORE POP POP POP JUMPDEST POP POP POP POP POP POP JUMP JUMPDEST PUSH2 0xB5A DUP1 PUSH3 0x1028 PUSH0 CODECOPY PUSH0 RETURN INVALID PUSH1 0x80 PUSH1 0x40 MSTORE CALLVALUE DUP1 ISZERO PUSH2 0xF JUMPI PUSH0 DUP1 REVERT JUMPDEST POP PUSH1 0x4 CALLDATASIZE LT PUSH2 0x55 JUMPI PUSH0 CALLDATALOAD PUSH1 0xE0 SHR DUP1 PUSH4 0x5F08720 EQ PUSH2 0x59 JUMPI DUP1 PUSH4 0x77F3EE8 EQ PUSH2 0x77 JUMPI DUP1 PUSH4 0x2109BAB5 EQ PUSH2 0x95 JUMPI DUP1 PUSH4 0x871E811C EQ PUSH2 0xB3 JUMPI DUP1 PUSH4 0xB7423646 EQ PUSH2 0xE3 JUMPI JUMPDEST PUSH0 DUP1 REVERT JUMPDEST PUSH2 0x61 PUSH2 0xFF JUMP JUMPDEST PUSH1 0x40 MLOAD PUSH2 0x6E SWAP2 SWAP1 PUSH2 0x6AD JUMP JUMPDEST PUSH1 0x40 MLOAD DUP1 SWAP2 SUB SWAP1 RETURN JUMPDEST PUSH2 0x7F PUSH2 0x18B JUMP JUMPDEST PUSH1 0x40 MLOAD PUSH2 0x8C SWAP2 SWAP1 PUSH2 0x6AD JUMP JUMPDEST PUSH1 0x40 MLOAD DUP1 SWAP2 SUB SWAP1 RETURN JUMPDEST PUSH2 0x9D PUSH2 0x217 JUMP JUMPDEST PUSH1 0x40 MLOAD PUSH2 0xAA SWAP2 SWAP1 PUSH2 0x6AD JUMP JUMPDEST PUSH1 0x40 MLOAD DUP1 SWAP2 SUB SWAP1 RETURN JUMPDEST PUSH2 0xCD PUSH1 0x4 DUP1 CALLDATASIZE SUB DUP2 ADD SWAP1 PUSH2 0xC8 SWAP2 SWAP1 PUSH2 0x80A JUMP JUMPDEST PUSH2 0x2A3 JUMP JUMPDEST PUSH1 0x40 MLOAD PUSH2 0xDA SWAP2 SWAP1 PUSH2 0x8C8 JUMP JUMPDEST PUSH1 0x40 MLOAD DUP1 SWAP2 SUB SWAP1 RETURN JUMPDEST PUSH2 0xFD PUSH1 0x4 DUP1 CALLDATASIZE SUB DUP2 ADD SWAP1 PUSH2 0xF8 SWAP2 SWAP1 PUSH2 0x80A JUMP JUMPDEST PUSH2 0x4B3 JUMP JUMPDEST STOP JUMPDEST PUSH1 0x6 DUP1 SLOAD PUSH2 0x10C SWAP1 PUSH2 0x90E JUMP JUMPDEST DUP1 PUSH1 0x1F ADD PUSH1 0x20 DUP1 SWAP2 DIV MUL PUSH1 0x20 ADD PUSH1 0x40 MLOAD SWAP1 DUP2 ADD PUSH1 0x40 MSTORE DUP1 SWAP3 SWAP2 SWAP1 DUP2 DUP2 MSTORE PUSH1 0x20 ADD DUP3 DUP1 SLOAD PUSH2 0x138 SWAP1 PUSH2 0x90E JUMP JUMPDEST DUP1 ISZERO PUSH2 0x183 JUMPI DUP1 PUSH1 0x1F LT PUSH2 0x15A JUMPI PUSH2 0x100 DUP1 DUP4 SLOAD DIV MUL DUP4 MSTORE SWAP2 PUSH1 0x20 ADD SWAP2 PUSH2 0x183 JUMP JUMPDEST DUP3 ADD SWAP2 SWAP1 PUSH0 MSTORE PUSH1 0x20 PUSH0 KECCAK256 SWAP1 JUMPDEST DUP2 SLOAD DUP2 MSTORE SWAP1 PUSH1 0x1 ADD SWAP1 PUSH1 0x20 ADD DUP1 DUP4 GT PUSH2 0x166 JUMPI DUP3 SWAP1 SUB PUSH1 0x1F AND DUP3 ADD SWAP2 JUMPDEST POP POP POP POP POP DUP2 JUMP JUMPDEST PUSH1 0x5 DUP1 SLOAD PUSH2 0x198 SWAP1 PUSH2 0x90E JUMP JUMPDEST DUP1 PUSH1 0x1F ADD PUSH1 0x20 DUP1 SWAP2 DIV MUL PUSH1 0x20 ADD PUSH1 0x40 MLOAD SWAP1 DUP2 ADD PUSH1 0x40 MSTORE DUP1 SWAP3 SWAP2 SWAP1 DUP2 DUP2 MSTORE PUSH1 0x20 ADD DUP3 DUP1 SLOAD PUSH2 0x1C4 SWAP1 PUSH2 0x90E JUMP JUMPDEST DUP1 ISZERO PUSH2 0x20F JUMPI DUP1 PUSH1 0x1F LT PUSH2 0x1E6 JUMPI PUSH2 0x100 DUP1 DUP4 SLOAD DIV MUL DUP4 MSTORE SWAP2 PUSH1 0x20 ADD SWAP2 PUSH2 0x20F JUMP JUMPDEST DUP3 ADD SWAP2 SWAP1 PUSH0 MSTORE PUSH1 0x20 PUSH0 KECCAK256 SWAP1 JUMPDEST DUP2 SLOAD DUP2 MSTORE SWAP1 PUSH1 0x1 ADD SWAP1 PUSH1 0x20 ADD DUP1 DUP4 GT PUSH2 0x1F2 JUMPI DUP3 SWAP1 SUB PUSH1 0x1F AND DUP3 ADD SWAP2 JUMPDEST POP POP POP POP POP DUP2 JUMP JUMPDEST PUSH1 0x7 DUP1 SLOAD PUSH2 0x224 SWAP1 PUSH2 0x90E JUMP JUMPDEST DUP1 PUSH1 0x1F ADD PUSH1 0x20 DUP1 SWAP2 DIV MUL PUSH1 0x20 ADD PUSH1 0x40 MLOAD SWAP1 DUP2 ADD PUSH1 0x40 MSTORE DUP1 SWAP3 SWAP2 SWAP1 DUP2 DUP2 MSTORE PUSH1 0x20 ADD DUP3 DUP1 SLOAD PUSH2 0x250 SWAP1 PUSH2 0x90E JUMP JUMPDEST DUP1 ISZERO PUSH2 0x29B JUMPI DUP1 PUSH1 0x1F LT PUSH2 0x272 JUMPI PUSH2 0x100 DUP1 DUP4 SLOAD DIV MUL DUP4 MSTORE SWAP2 PUSH1 0x20 ADD SWAP2 PUSH2 0x29B JUMP JUMPDEST DUP3 ADD SWAP2 SWAP1 PUSH0 MSTORE PUSH1 0x20 PUSH0 KECCAK256 SWAP1 JUMPDEST DUP2 SLOAD DUP2 MSTORE SWAP1 PUSH1 0x1 ADD SWAP1 PUSH1 0x20 ADD DUP1 DUP4 GT PUSH2 0x27E JUMPI DUP3 SWAP1 SUB PUSH1 0x1F AND DUP3 ADD SWAP2 JUMPDEST POP POP POP POP POP DUP2 JUMP JUMPDEST PUSH0 DUP1 PUSH2 0x337 DUP6 PUSH1 0x5 DUP1 SLOAD PUSH2 0x2B6 SWAP1 PUSH2 0x90E JUMP JUMPDEST DUP1 PUSH1 0x1F ADD PUSH1 0x20 DUP1 SWAP2 DIV MUL PUSH1 0x20 ADD PUSH1 0x40 MLOAD SWAP1 DUP2 ADD PUSH1 0x40 MSTORE DUP1 SWAP3 SWAP2 SWAP1 DUP2 DUP2 MSTORE PUSH1 0x20 ADD DUP3 DUP1 SLOAD PUSH2 0x2E2 SWAP1 PUSH2 0x90E JUMP JUMPDEST DUP1 ISZERO PUSH2 0x32D JUMPI DUP1 PUSH1 0x1F LT PUSH2 0x304 JUMPI PUSH2 0x100 DUP1 DUP4 SLOAD DIV MUL DUP4 MSTORE SWAP2 PUSH1 0x20 ADD SWAP2 PUSH2 0x32D JUMP JUMPDEST DUP3 ADD SWAP2 SWAP1 PUSH0 MSTORE PUSH1 0x20 PUSH0 KECCAK256 SWAP1 JUMPDEST DUP2 SLOAD DUP2 MSTORE SWAP1 PUSH1 0x1 ADD SWAP1 PUSH1 0x20 ADD DUP1 DUP4 GT PUSH2 0x310 JUMPI DUP3 SWAP1 SUB PUSH1 0x1F AND DUP3 ADD SWAP2 JUMPDEST POP POP POP POP POP PUSH2 0x5CB JUMP JUMPDEST DUP1 ISZERO PUSH2 0x3D1 JUMPI POP PUSH2 0x3D0 DUP5 PUSH1 0x6 DUP1 SLOAD PUSH2 0x34F SWAP1 PUSH2 0x90E JUMP JUMPDEST DUP1 PUSH1 0x1F ADD PUSH1 0x20 DUP1 SWAP2 DIV MUL PUSH1 0x20 ADD PUSH1 0x40 MLOAD SWAP1 DUP2 ADD PUSH1 0x40 MSTORE DUP1 SWAP3 SWAP2 SWAP1 DUP2 DUP2 MSTORE PUSH1 0x20 ADD DUP3 DUP1 SLOAD PUSH2 0x37B SWAP1 PUSH2 0x90E JUMP JUMPDEST DUP1 ISZERO PUSH2 0x3C6 JUMPI DUP1 PUSH1 0x1F LT PUSH2 0x39D JUMPI PUSH2 0x100 DUP1 DUP4 SLOAD DIV MUL DUP4 MSTORE SWAP2 PUSH1 0x20 ADD SWAP2 PUSH2 0x3C6 JUMP JUMPDEST DUP3 ADD SWAP2 SWAP1 PUSH0 MSTORE PUSH1 0x20 PUSH0 KECCAK256 SWAP1 JUMPDEST DUP2 SLOAD DUP2 MSTORE SWAP1 PUSH1 0x1 ADD SWAP1 PUSH1 0x20 ADD DUP1 DUP4 GT PUSH2 0x3A9 JUMPI DUP3 SWAP1 SUB PUSH1 0x1F AND DUP3 ADD SWAP2 JUMPDEST POP POP POP POP POP PUSH2 0x5CB JUMP JUMPDEST JUMPDEST DUP1 ISZERO PUSH2 0x46B JUMPI POP PUSH2 0x46A DUP4 PUSH1 0x7 DUP1 SLOAD PUSH2 0x3E9 SWAP1 PUSH2 0x90E JUMP JUMPDEST DUP1 PUSH1 0x1F ADD PUSH1 0x20 DUP1 SWAP2 DIV MUL PUSH1 0x20 ADD PUSH1 0x40 MLOAD SWAP1 DUP2 ADD PUSH1 0x40 MSTORE DUP1 SWAP3 SWAP2 SWAP1 DUP2 DUP2 MSTORE PUSH1 0x20 ADD DUP3 DUP1 SLOAD PUSH2 0x415 SWAP1 PUSH2 0x90E JUMP JUMPDEST DUP1 ISZERO PUSH2 0x460 JUMPI DUP1 PUSH1 0x1F LT PUSH2 0x437 JUMPI PUSH2 0x100 DUP1 DUP4 SLOAD DIV MUL DUP4 MSTORE SWAP2 PUSH1 0x20 ADD SWAP2 PUSH2 0x460 JUMP JUMPDEST DUP3 ADD SWAP2 SWAP1 PUSH0 MSTORE PUSH1 0x20 PUSH0 KECCAK256 SWAP1 JUMPDEST DUP2 SLOAD DUP2 MSTORE SWAP1 PUSH1 0x1 ADD SWAP1 PUSH1 0x20 ADD DUP1 DUP4 GT PUSH2 0x443 JUMPI DUP3 SWAP1 SUB PUSH1 0x1F AND DUP3 ADD SWAP2 JUMPDEST POP POP POP POP POP PUSH2 0x5CB JUMP JUMPDEST JUMPDEST SWAP1 POP DUP1 PUSH2 0x4A8 JUMPI PUSH32 0x5E88CC8219408F24B783D02DDBCE8827DDDA7D0C8AC16970155E2C82C8CAF356 PUSH1 0x40 MLOAD PUSH2 0x49F SWAP1 PUSH2 0x9AE JUMP JUMPDEST PUSH1 0x40 MLOAD DUP1 SWAP2 SUB SWAP1 LOG1 JUMPDEST DUP1 SWAP2 POP POP SWAP4 SWAP3 POP POP POP JUMP JUMPDEST PUSH0 DUP4 DUP4 DUP4 PUSH1 0x40 MLOAD PUSH1 0x20 ADD PUSH2 0x4C9 SWAP4 SWAP3 SWAP2 SWAP1 PUSH2 0xA06 JUMP JUMPDEST PUSH1 0x40 MLOAD PUSH1 0x20 DUP2 DUP4 SUB SUB DUP2 MSTORE SWAP1 PUSH1 0x40 MSTORE SWAP1 POP PUSH0 DUP2 PUSH1 0x40 MLOAD PUSH1 0x20 ADD PUSH2 0x4EC SWAP2 SWAP1 PUSH2 0xA36 JUMP JUMPDEST PUSH1 0x40 MLOAD PUSH1 0x20 DUP2 DUP4 SUB SUB DUP2 MSTORE SWAP1 PUSH1 0x40 MSTORE DUP1 MLOAD SWAP1 PUSH1 0x20 ADD KECCAK256 SWAP1 POP PUSH32 0xC4DC360D0A9C0677A3379AE0A3D81E887F761E65FDF3D7E00859D1BCD3C47389 PUSH1 0x40 MLOAD PUSH2 0x531 SWAP1 PUSH2 0xABC JUMP JUMPDEST PUSH1 0x40 MLOAD DUP1 SWAP2 SUB SWAP1 LOG1 PUSH1 0x8 PUSH0 SWAP1 SLOAD SWAP1 PUSH2 0x100 EXP SWAP1 DIV PUSH20 0xFFFFFFFFFFFFFFFFFFFFFFFFFFFFFFFFFFFFFFFF AND PUSH20 0xFFFFFFFFFFFFFFFFFFFFFFFFFFFFFFFFFFFFFFFF AND PUSH4 0xBF5AA7BA DUP7 DUP7 DUP7 PUSH1 0x40 MLOAD DUP5 PUSH4 0xFFFFFFFF AND PUSH1 0xE0 SHL DUP2 MSTORE PUSH1 0x4 ADD PUSH2 0x597 SWAP4 SWAP3 SWAP2 SWAP1 PUSH2 0xADA JUMP JUMPDEST PUSH0 PUSH1 0x40 MLOAD DUP1 DUP4 SUB DUP2 PUSH0 DUP8 DUP1 EXTCODESIZE ISZERO DUP1 ISZERO PUSH2 0x5AE JUMPI PUSH0 DUP1 REVERT JUMPDEST POP GAS CALL ISZERO DUP1 ISZERO PUSH2 0x5C0 JUMPI RETURNDATASIZE PUSH0 DUP1 RETURNDATACOPY RETURNDATASIZE PUSH0 REVERT JUMPDEST POP POP POP POP POP POP POP POP POP JUMP JUMPDEST PUSH0 DUP2 PUSH1 0x40 MLOAD PUSH1 0x20 ADD PUSH2 0x5DD SWAP2 SWAP1 PUSH2 0xA36 JUMP JUMPDEST PUSH1 0x40 MLOAD PUSH1 0x20 DUP2 DUP4 SUB SUB DUP2 MSTORE SWAP1 PUSH1 0x40 MSTORE DUP1 MLOAD SWAP1 PUSH1 0x20 ADD KECCAK256 DUP4 PUSH1 0x40 MLOAD PUSH1 0x20 ADD PUSH2 0x604 SWAP2 SWAP1 PUSH2 0xA36 JUMP JUMPDEST PUSH1 0x40 MLOAD PUSH1 0x20 DUP2 DUP4 SUB SUB DUP2 MSTORE SWAP1 PUSH1 0x40 MSTORE DUP1 MLOAD SWAP1 PUSH1 0x20 ADD KECCAK256 EQ SWAP1 POP SWAP3 SWAP2 POP POP JUMP JUMPDEST PUSH0 DUP2 MLOAD SWAP1 POP SWAP2 SWAP1 POP JUMP JUMPDEST PUSH0 DUP3 DUP3 MSTORE PUSH1 0x20 DUP3 ADD SWAP1 POP SWAP3 SWAP2 POP POP JUMP JUMPDEST PUSH0 JUMPDEST DUP4 DUP2 LT ISZERO PUSH2 0x65A JUMPI DUP1 DUP3 ADD MLOAD DUP2 DUP5 ADD MSTORE PUSH1 0x20 DUP2 ADD SWAP1 POP PUSH2 0x63F JUMP JUMPDEST PUSH0 DUP5 DUP5 ADD MSTORE POP POP POP POP JUMP JUMPDEST PUSH0 PUSH1 0x1F NOT PUSH1 0x1F DUP4 ADD AND SWAP1 POP SWAP2 SWAP1 POP JUMP JUMPDEST PUSH0 PUSH2 0x67F DUP3 PUSH2 0x623 JUMP JUMPDEST PUSH2 0x689 DUP2 DUP6 PUSH2 0x62D JUMP JUMPDEST SWAP4 POP PUSH2 0x699 DUP2 DUP6 PUSH1 0x20 DUP7 ADD PUSH2 0x63D JUMP JUMPDEST PUSH2 0x6A2 DUP2 PUSH2 0x665 JUMP JUMPDEST DUP5 ADD SWAP2 POP POP SWAP3 SWAP2 POP POP JUMP JUMPDEST PUSH0 PUSH1 0x20 DUP3 ADD SWAP1 POP DUP2 DUP2 SUB PUSH0 DUP4 ADD MSTORE PUSH2 0x6C5 DUP2 DUP5 PUSH2 0x675 JUMP JUMPDEST SWAP1 POP SWAP3 SWAP2 POP POP JUMP JUMPDEST PUSH0 PUSH1 0x40 MLOAD SWAP1 POP SWAP1 JUMP JUMPDEST PUSH0 DUP1 REVERT JUMPDEST PUSH0 DUP1 REVERT JUMPDEST PUSH0 DUP1 REVERT JUMPDEST PUSH0 DUP1 REVERT JUMPDEST PUSH32 0x4E487B7100000000000000000000000000000000000000000000000000000000 PUSH0 MSTORE PUSH1 0x41 PUSH1 0x4 MSTORE PUSH1 0x24 PUSH0 REVERT JUMPDEST PUSH2 0x71C DUP3 PUSH2 0x665 JUMP JUMPDEST DUP2 ADD DUP2 DUP2 LT PUSH8 0xFFFFFFFFFFFFFFFF DUP3 GT OR ISZERO PUSH2 0x73B JUMPI PUSH2 0x73A PUSH2 0x6E6 JUMP JUMPDEST JUMPDEST DUP1 PUSH1 0x40 MSTORE POP POP POP JUMP JUMPDEST PUSH0 PUSH2 0x74D PUSH2 0x6CD JUMP JUMPDEST SWAP1 POP PUSH2 0x759 DUP3 DUP3 PUSH2 0x713 JUMP JUMPDEST SWAP2 SWAP1 POP JUMP JUMPDEST PUSH0 PUSH8 0xFFFFFFFFFFFFFFFF DUP3 GT ISZERO PUSH2 0x778 JUMPI PUSH2 0x777 PUSH2 0x6E6 JUMP JUMPDEST JUMPDEST PUSH2 0x781 DUP3 PUSH2 0x665 JUMP JUMPDEST SWAP1 POP PUSH1 0x20 DUP2 ADD SWAP1 POP SWAP2 SWAP1 POP JUMP JUMPDEST DUP3 DUP2 DUP4 CALLDATACOPY PUSH0 DUP4 DUP4 ADD MSTORE POP POP POP JUMP JUMPDEST PUSH0 PUSH2 0x7AE PUSH2 0x7A9 DUP5 PUSH2 0x75E JUMP JUMPDEST PUSH2 0x744 JUMP JUMPDEST SWAP1 POP DUP3 DUP2 MSTORE PUSH1 0x20 DUP2 ADD DUP5 DUP5 DUP5 ADD GT ISZERO PUSH2 0x7CA JUMPI PUSH2 0x7C9 PUSH2 0x6E2 JUMP JUMPDEST JUMPDEST PUSH2 0x7D5 DUP5 DUP3 DUP6 PUSH2 0x78E JUMP JUMPDEST POP SWAP4 SWAP3 POP POP POP JUMP JUMPDEST PUSH0 DUP3 PUSH1 0x1F DUP4 ADD SLT PUSH2 0x7F1 JUMPI PUSH2 0x7F0 PUSH2 0x6DE JUMP JUMPDEST JUMPDEST DUP2 CALLDATALOAD PUSH2 0x801 DUP5 DUP3 PUSH1 0x20 DUP7 ADD PUSH2 0x79C JUMP JUMPDEST SWAP2 POP POP SWAP3 SWAP2 POP POP JUMP JUMPDEST PUSH0 DUP1 PUSH0 PUSH1 0x60 DUP5 DUP7 SUB SLT ISZERO PUSH2 0x821 JUMPI PUSH2 0x820 PUSH2 0x6D6 JUMP JUMPDEST JUMPDEST PUSH0 DUP5 ADD CALLDATALOAD PUSH8 0xFFFFFFFFFFFFFFFF DUP2 GT ISZERO PUSH2 0x83E JUMPI PUSH2 0x83D PUSH2 0x6DA JUMP JUMPDEST JUMPDEST PUSH2 0x84A DUP7 DUP3 DUP8 ADD PUSH2 0x7DD JUMP JUMPDEST SWAP4 POP POP PUSH1 0x20 DUP5 ADD CALLDATALOAD PUSH8 0xFFFFFFFFFFFFFFFF DUP2 GT ISZERO PUSH2 0x86B JUMPI PUSH2 0x86A PUSH2 0x6DA JUMP JUMPDEST JUMPDEST PUSH2 0x877 DUP7 DUP3 DUP8 ADD PUSH2 0x7DD JUMP JUMPDEST SWAP3 POP POP PUSH1 0x40 DUP5 ADD CALLDATALOAD PUSH8 0xFFFFFFFFFFFFFFFF DUP2 GT ISZERO PUSH2 0x898 JUMPI PUSH2 0x897 PUSH2 0x6DA JUMP JUMPDEST JUMPDEST PUSH2 0x8A4 DUP7 DUP3 DUP8 ADD PUSH2 0x7DD JUMP JUMPDEST SWAP2 POP POP SWAP3 POP SWAP3 POP SWAP3 JUMP JUMPDEST PUSH0 DUP2 ISZERO ISZERO SWAP1 POP SWAP2 SWAP1 POP JUMP JUMPDEST PUSH2 0x8C2 DUP2 PUSH2 0x8AE JUMP JUMPDEST DUP3 MSTORE POP POP JUMP JUMPDEST PUSH0 PUSH1 0x20 DUP3 ADD SWAP1 POP PUSH2 0x8DB PUSH0 DUP4 ADD DUP5 PUSH2 0x8B9 JUMP JUMPDEST SWAP3 SWAP2 POP POP JUMP JUMPDEST PUSH32 0x4E487B7100000000000000000000000000000000000000000000000000000000 PUSH0 MSTORE PUSH1 0x22 PUSH1 0x4 MSTORE PUSH1 0x24 PUSH0 REVERT JUMPDEST PUSH0 PUSH1 0x2 DUP3 DIV SWAP1 POP PUSH1 0x1 DUP3 AND DUP1 PUSH2 0x925 JUMPI PUSH1 0x7F DUP3 AND SWAP2 POP JUMPDEST PUSH1 0x20 DUP3 LT DUP2 SUB PUSH2 0x938 JUMPI PUSH2 0x937 PUSH2 0x8E1 JUMP JUMPDEST JUMPDEST POP SWAP2 SWAP1 POP JUMP JUMPDEST PUSH32 0x4E65777320766572696669636174696F6E206661696C656420666F7220746865 PUSH0 DUP3 ADD MSTORE PUSH32 0x2070726F766964656420646174612E0000000000000000000000000000000000 PUSH1 0x20 DUP3 ADD MSTORE POP JUMP JUMPDEST PUSH0 PUSH2 0x998 PUSH1 0x2F DUP4 PUSH2 0x62D JUMP JUMPDEST SWAP2 POP PUSH2 0x9A3 DUP3 PUSH2 0x93E JUMP JUMPDEST PUSH1 0x40 DUP3 ADD SWAP1 POP SWAP2 SWAP1 POP JUMP JUMPDEST PUSH0 PUSH1 0x20 DUP3 ADD SWAP1 POP DUP2 DUP2 SUB PUSH0 DUP4 ADD MSTORE PUSH2 0x9C5 DUP2 PUSH2 0x98C JUMP JUMPDEST SWAP1 POP SWAP2 SWAP1 POP JUMP JUMPDEST PUSH0 DUP2 SWAP1 POP SWAP3 SWAP2 POP POP JUMP JUMPDEST PUSH0 PUSH2 0x9E0 DUP3 PUSH2 0x623 JUMP JUMPDEST PUSH2 0x9EA DUP2 DUP6 PUSH2 0x9CC JUMP JUMPDEST SWAP4 POP PUSH2 0x9FA DUP2 DUP6 PUSH1 0x20 DUP7 ADD PUSH2 0x63D JUMP JUMPDEST DUP1 DUP5 ADD SWAP2 POP POP SWAP3 SWAP2 POP POP JUMP JUMPDEST PUSH0 PUSH2 0xA11 DUP3 DUP7 PUSH2 0x9D6 JUMP JUMPDEST SWAP2 POP PUSH2 0xA1D DUP3 DUP6 PUSH2 0x9D6 JUMP JUMPDEST SWAP2 POP PUSH2 0xA29 DUP3 DUP5 PUSH2 0x9D6 JUMP JUMPDEST SWAP2 POP DUP2 SWAP1 POP SWAP5 SWAP4 POP POP POP POP JUMP JUMPDEST PUSH0 PUSH2 0xA41 DUP3 DUP5 PUSH2 0x9D6 JUMP JUMPDEST SWAP2 POP DUP2 SWAP1 POP SWAP3 SWAP2 POP POP JUMP JUMPDEST PUSH32 0x50726F7661626C652071756572792073656E742C206177616974696E67207665 PUSH0 DUP3 ADD MSTORE PUSH32 0x72696669636174696F6E2E2E2E00000000000000000000000000000000000000 PUSH1 0x20 DUP3 ADD MSTORE POP JUMP JUMPDEST PUSH0 PUSH2 0xAA6 PUSH1 0x2D DUP4 PUSH2 0x62D JUMP JUMPDEST SWAP2 POP PUSH2 0xAB1 DUP3 PUSH2 0xA4C JUMP JUMPDEST PUSH1 0x40 DUP3 ADD SWAP1 POP SWAP2 SWAP1 POP JUMP JUMPDEST PUSH0 PUSH1 0x20 DUP3 ADD SWAP1 POP DUP2 DUP2 SUB PUSH0 DUP4 ADD MSTORE PUSH2 0xAD3 DUP2 PUSH2 0xA9A JUMP JUMPDEST SWAP1 POP SWAP2 SWAP1 POP JUMP JUMPDEST PUSH0 PUSH1 0x60 DUP3 ADD SWAP1 POP DUP2 DUP2 SUB PUSH0 DUP4 ADD MSTORE PUSH2 0xAF2 DUP2 DUP7 PUSH2 0x675 JUMP JUMPDEST SWAP1 POP DUP2 DUP2 SUB PUSH1 0x20 DUP4 ADD MSTORE PUSH2 0xB06 DUP2 DUP6 PUSH2 0x675 JUMP JUMPDEST SWAP1 POP DUP2 DUP2 SUB PUSH1 0x40 DUP4 ADD MSTORE PUSH2 0xB1A DUP2 DUP5 PUSH2 0x675 JUMP JUMPDEST SWAP1 POP SWAP5 SWAP4 POP POP POP POP JUMP INVALID LOG2 PUSH5 0x6970667358 0x22 SLT KECCAK256 GASLIMIT LOG1 0xCF EQ MSTORE 0x2B CODECOPY 0xD3 0xAB 0xD5 SSTORE PUSH3 0xD5824A SIGNEXTEND ORIGIN 0xBC 0xAA EQ SELFDESTRUCT 0xFB 0xCE PUSH23 0xC44FB7B95B216AC564736F6C6343000814003300000000 "
		},
		"gasEstimates": {
			"creation": {
				"codeDepositCost": "581200",
				"executionCost": "infinite",
				"totalCost": "infinite"
			},
			"external": {
				"uploadNews(string,string,string)": "infinite",
				"verifiedNewsAuthor()": "infinite",
				"verifiedNewsContent()": "infinite",
				"verifiedNewsTitle()": "infinite",
				"verifyNews(string,string,string)": "infinite"
			},
			"internal": {
				"compareStrings(string memory,string memory)": "infinite"
			}
		},
		"methodIdentifiers": {
			"uploadNews(string,string,string)": "b7423646",
			"verifiedNewsAuthor()": "2109bab5",
			"verifiedNewsContent()": "05f08720",
			"verifiedNewsTitle()": "077f3ee8",
			"verifyNews(string,string,string)": "871e811c"
		}
	},
	"abi": [
		{
			"inputs": [
				{
					"internalType": "address",
					"name": "_provableQuery",
					"type": "address"
				}
			],
			"stateMutability": "nonpayable",
			"type": "constructor"
		},
		{
			"anonymous": false,
			"inputs": [
				{
					"indexed": false,
					"internalType": "string",
					"name": "description",
					"type": "string"
				}
			],
			"name": "LogNewProvableQuery",
			"type": "event"
		},
		{
			"anonymous": false,
			"inputs": [
				{
					"indexed": false,
					"internalType": "bool",
					"name": "success",
					"type": "bool"
				},
				{
					"indexed": false,
					"internalType": "string",
					"name": "description",
					"type": "string"
				}
			],
			"name": "LogNewsVerified",
			"type": "event"
		},
		{
			"anonymous": false,
			"inputs": [
				{
					"indexed": false,
					"internalType": "string",
					"name": "description",
					"type": "string"
				}
			],
			"name": "NewsVerificationFailed",
			"type": "event"
		},
		{
			"inputs": [
				{
					"internalType": "string",
					"name": "title",
					"type": "string"
				},
				{
					"internalType": "string",
					"name": "content",
					"type": "string"
				},
				{
					"internalType": "string",
					"name": "author",
					"type": "string"
				}
			],
			"name": "uploadNews",
			"outputs": [],
			"stateMutability": "nonpayable",
			"type": "function"
		},
		{
			"inputs": [],
			"name": "verifiedNewsAuthor",
			"outputs": [
				{
					"internalType": "string",
					"name": "",
					"type": "string"
				}
			],
			"stateMutability": "view",
			"type": "function"
		},
		{
			"inputs": [],
			"name": "verifiedNewsContent",
			"outputs": [
				{
					"internalType": "string",
					"name": "",
					"type": "string"
				}
			],
			"stateMutability": "view",
			"type": "function"
		},
		{
			"inputs": [],
			"name": "verifiedNewsTitle",
			"outputs": [
				{
					"internalType": "string",
					"name": "",
					"type": "string"
				}
			],
			"stateMutability": "view",
			"type": "function"
		},
		{
			"inputs": [
				{
					"internalType": "string",
					"name": "title",
					"type": "string"
				},
				{
					"internalType": "string",
					"name": "content",
					"type": "string"
				},
				{
					"internalType": "string",
					"name": "author",
					"type": "string"
				}
			],
			"name": "verifyNews",
			"outputs": [
				{
					"internalType": "bool",
					"name": "",
					"type": "bool"
				}
			],
			"stateMutability": "nonpayable",
			"type": "function"
		}
	]
}