{
	"data": {
		"bytecode": {
			"linkReferences": {},
			"object": "608060405234801561000f575f80fd5b50335f806101000a81548173ffffffffffffffffffffffffffffffffffffffff021916908373ffffffffffffffffffffffffffffffffffffffff1602179055506118088061005c5f395ff3fe608060405234801561000f575f80fd5b506004361061004a575f3560e01c8063177d2a741461004e5780631828983a1461006a5780638da5cb5b1461009a578063ad02b1c9146100b8575b5f80fd5b61006860048036038101906100639190610f29565b6100d4565b005b610084600480360381019061007f9190610f29565b6101b8565b6040516100919190610f6e565b60405180910390f35b6100a26101d5565b6040516100af9190610f96565b60405180910390f35b6100d260048036038101906100cd91906111a8565b6101f8565b005b5f8054906101000a900473ffffffffffffffffffffffffffffffffffffffff1673ffffffffffffffffffffffffffffffffffffffff163373ffffffffffffffffffffffffffffffffffffffff1614610161576040517f08c379a000000000000000000000000000000000000000000000000000000000815260040161015890611249565b60405180910390fd5b6001805f8373ffffffffffffffffffffffffffffffffffffffff1673ffffffffffffffffffffffffffffffffffffffff1681526020019081526020015f205f6101000a81548160ff02191690831515021790555050565b6001602052805f5260405f205f915054906101000a900460ff1681565b5f8054906101000a900473ffffffffffffffffffffffffffffffffffffffff1681565b5f8054906101000a900473ffffffffffffffffffffffffffffffffffffffff1673ffffffffffffffffffffffffffffffffffffffff163373ffffffffffffffffffffffffffffffffffffffff161480610297575060015f3373ffffffffffffffffffffffffffffffffffffffff1673ffffffffffffffffffffffffffffffffffffffff1681526020019081526020015f205f9054906101000a900460ff165b6102d6576040517f08c379a00000000000000000000000000000000000000000000000000000000081526004016102cd90611249565b60405180910390fd5b61034a6040518060400160405280600381526020017f55524c00000000000000000000000000000000000000000000000000000000008152506040518060400160405280601c81526020017f68747470733a2f2f796f75726e6577736170692e636f6d2f6e6577730000000081525061034e565b5050565b5f8073ffffffffffffffffffffffffffffffffffffffff1660035f9054906101000a900473ffffffffffffffffffffffffffffffffffffffff1673ffffffffffffffffffffffffffffffffffffffff1614806103d257505f6103d060035f9054906101000a900473ffffffffffffffffffffffffffffffffffffffff1661070e565b145b156103e2576103e05f610718565b505b60035f9054906101000a900473ffffffffffffffffffffffffffffffffffffffff1673ffffffffffffffffffffffffffffffffffffffff166338cc48316040518163ffffffff1660e01b81526004016020604051808303815f875af115801561044d573d5f803e3d5ffd5b505050506040513d601f19601f82011682018060405250810190610471919061127b565b73ffffffffffffffffffffffffffffffffffffffff1660025f9054906101000a900473ffffffffffffffffffffffffffffffffffffffff1673ffffffffffffffffffffffffffffffffffffffff16146105935760035f9054906101000a900473ffffffffffffffffffffffffffffffffffffffff1673ffffffffffffffffffffffffffffffffffffffff166338cc48316040518163ffffffff1660e01b81526004016020604051808303815f875af115801561052f573d5f803e3d5ffd5b505050506040513d601f19601f82011682018060405250810190610553919061127b565b60025f6101000a81548173ffffffffffffffffffffffffffffffffffffffff021916908373ffffffffffffffffffffffffffffffffffffffff1602179055505b5f60025f9054906101000a900473ffffffffffffffffffffffffffffffffffffffff1673ffffffffffffffffffffffffffffffffffffffff1663524f3889856040518263ffffffff1660e01b81526004016105ee9190611310565b6020604051808303815f875af115801561060a573d5f803e3d5ffd5b505050506040513d601f19601f8201168201806040525081019061062e9190611363565b905062030d403a61063f91906113bb565b670de0b6b3a764000061065291906113fc565b811115610664575f801b915050610708565b60025f9054906101000a900473ffffffffffffffffffffffffffffffffffffffff1673ffffffffffffffffffffffffffffffffffffffff1663adf59f99825f87876040518563ffffffff1660e01b81526004016106c393929190611471565b60206040518083038185885af11580156106df573d5f803e3d5ffd5b50505050506040513d601f19601f8201168201806040525081019061070491906114e7565b9150505b92915050565b5f813b9050919050565b5f610721610728565b9050919050565b5f80610747731d3b2638a7cc9f2cb3d298a3da7a90b67e5506ed61070e565b11156107e857731d3b2638a7cc9f2cb3d298a3da7a90b67e5506ed60035f6101000a81548173ffffffffffffffffffffffffffffffffffffffff021916908373ffffffffffffffffffffffffffffffffffffffff1602179055506107df6040518060400160405280600b81526020017f6574685f6d61696e6e6574000000000000000000000000000000000000000000815250610eab565b60019050610ea8565b5f61080673c03a2615d5efaf5f49f60b7bb6583eaec212fdf161070e565b11156108a75773c03a2615d5efaf5f49f60b7bb6583eaec212fdf160035f6101000a81548173ffffffffffffffffffffffffffffffffffffffff021916908373ffffffffffffffffffffffffffffffffffffffff16021790555061089e6040518060400160405280600c81526020017f6574685f726f707374656e330000000000000000000000000000000000000000815250610eab565b60019050610ea8565b5f6108c573b7a07bcf2ba2f2703b24c0691b5278999c59ac7e61070e565b11156109665773b7a07bcf2ba2f2703b24c0691b5278999c59ac7e60035f6101000a81548173ffffffffffffffffffffffffffffffffffffffff021916908373ffffffffffffffffffffffffffffffffffffffff16021790555061095d6040518060400160405280600981526020017f6574685f6b6f76616e0000000000000000000000000000000000000000000000815250610eab565b60019050610ea8565b5f61098473146500cfd35b22e4a392fe0adc06de1a1368ed4861070e565b1115610a255773146500cfd35b22e4a392fe0adc06de1a1368ed4860035f6101000a81548173ffffffffffffffffffffffffffffffffffffffff021916908373ffffffffffffffffffffffffffffffffffffffff160217905550610a1c6040518060400160405280600b81526020017f6574685f72696e6b656279000000000000000000000000000000000000000000815250610eab565b60019050610ea8565b5f610a4373a2998efd205fb9d4b4963afb70778d6354ad3a4161070e565b1115610ae45773a2998efd205fb9d4b4963afb70778d6354ad3a4160035f6101000a81548173ffffffffffffffffffffffffffffffffffffffff021916908373ffffffffffffffffffffffffffffffffffffffff160217905550610adb6040518060400160405280600a81526020017f6574685f676f65726c6900000000000000000000000000000000000000000000815250610eab565b60019050610ea8565b5f610b027390a0f94702c9630036fb9846b52bf31a1c991a8461070e565b1115610ba3577390a0f94702c9630036fb9846b52bf31a1c991a8460035f6101000a81548173ffffffffffffffffffffffffffffffffffffffff021916908373ffffffffffffffffffffffffffffffffffffffff160217905550610b9a6040518060400160405280600b81526020017f6273635f6d61696e6e6574000000000000000000000000000000000000000000815250610eab565b60019050610ea8565b5f610bc173816ec2af1b56183f82f8c05759e99fec3c3de60961070e565b1115610c625773816ec2af1b56183f82f8c05759e99fec3c3de60960035f6101000a81548173ffffffffffffffffffffffffffffffffffffffff021916908373ffffffffffffffffffffffffffffffffffffffff160217905550610c596040518060400160405280600f81526020017f706f6c79676f6e5f6d61696e6e65740000000000000000000000000000000000815250610eab565b60019050610ea8565b5f610c807314b31a1c66a9f3d18dfac2d123fe8ce5847b7f8561070e565b1115610d21577314b31a1c66a9f3d18dfac2d123fe8ce5847b7f8560035f6101000a81548173ffffffffffffffffffffffffffffffffffffffff021916908373ffffffffffffffffffffffffffffffffffffffff160217905550610d186040518060400160405280600f81526020017f7365706f6c69615f6d61696e6e65740000000000000000000000000000000000815250610eab565b60019050610ea8565b5f610d3f736f485c8bf6fc43ea212e93bbf8ce046c7f1cb47561070e565b1115610da257736f485c8bf6fc43ea212e93bbf8ce046c7f1cb47560035f6101000a81548173ffffffffffffffffffffffffffffffffffffffff021916908373ffffffffffffffffffffffffffffffffffffffff16021790555060019050610ea8565b5f610dc07320e12a1f859b3feae5fb2a0a32c18f5a65555bbf61070e565b1115610e23577320e12a1f859b3feae5fb2a0a32c18f5a65555bbf60035f6101000a81548173ffffffffffffffffffffffffffffffffffffffff021916908373ffffffffffffffffffffffffffffffffffffffff16021790555060019050610ea8565b5f610e417351efaf4c8b3c9afbd5ab9f4bbc82784ab6ef8faa61070e565b1115610ea4577351efaf4c8b3c9afbd5ab9f4bbc82784ab6ef8faa60035f6101000a81548173ffffffffffffffffffffffffffffffffffffffff021916908373ffffffffffffffffffffffffffffffffffffffff16021790555060019050610ea8565b5f90505b90565b8060049081610eba9190611703565b5050565b5f604051905090565b5f80fd5b5f80fd5b5f73ffffffffffffffffffffffffffffffffffffffff82169050919050565b5f610ef882610ecf565b9050919050565b610f0881610eee565b8114610f12575f80fd5b50565b5f81359050610f2381610eff565b92915050565b5f60208284031215610f3e57610f3d610ec7565b5b5f610f4b84828501610f15565b91505092915050565b5f8115159050919050565b610f6881610f54565b82525050565b5f602082019050610f815f830184610f5f565b92915050565b610f9081610eee565b82525050565b5f602082019050610fa95f830184610f87565b92915050565b5f80fd5b5f601f19601f8301169050919050565b7f4e487b71000000000000000000000000000000000000000000000000000000005f52604160045260245ffd5b610ff982610fb3565b810181811067ffffffffffffffff8211171561101857611017610fc3565b5b80604052505050565b5f61102a610ebe565b90506110368282610ff0565b919050565b5f80fd5b5f80fd5b5f80fd5b5f67ffffffffffffffff82111561106157611060610fc3565b5b61106a82610fb3565b9050602081019050919050565b828183375f83830152505050565b5f61109761109284611047565b611021565b9050828152602081018484840111156110b3576110b2611043565b5b6110be848285611077565b509392505050565b5f82601f8301126110da576110d961103f565b5b81356110ea848260208601611085565b91505092915050565b5f6060828403121561110857611107610faf565b5b6111126060611021565b90505f82013567ffffffffffffffff8111156111315761113061103b565b5b61113d848285016110c6565b5f83015250602082013567ffffffffffffffff8111156111605761115f61103b565b5b61116c848285016110c6565b602083015250604082013567ffffffffffffffff8111156111905761118f61103b565b5b61119c848285016110c6565b60408301525092915050565b5f602082840312156111bd576111bc610ec7565b5b5f82013567ffffffffffffffff8111156111da576111d9610ecb565b5b6111e6848285016110f3565b91505092915050565b5f82825260208201905092915050565b7f496e73756666696369656e74207065726d697373696f6e7300000000000000005f82015250565b5f6112336018836111ef565b915061123e826111ff565b602082019050919050565b5f6020820190508181035f83015261126081611227565b9050919050565b5f8151905061127581610eff565b92915050565b5f602082840312156112905761128f610ec7565b5b5f61129d84828501611267565b91505092915050565b5f81519050919050565b5f5b838110156112cd5780820151818401526020810190506112b2565b5f8484015250505050565b5f6112e2826112a6565b6112ec81856111ef565b93506112fc8185602086016112b0565b61130581610fb3565b840191505092915050565b5f6020820190508181035f83015261132881846112d8565b905092915050565b5f819050919050565b61134281611330565b811461134c575f80fd5b50565b5f8151905061135d81611339565b92915050565b5f6020828403121561137857611377610ec7565b5b5f6113858482850161134f565b91505092915050565b7f4e487b71000000000000000000000000000000000000000000000000000000005f52601160045260245ffd5b5f6113c582611330565b91506113d083611330565b92508282026113de81611330565b915082820484148315176113f5576113f461138e565b5b5092915050565b5f61140682611330565b915061141183611330565b92508282019050808211156114295761142861138e565b5b92915050565b5f819050919050565b5f819050919050565b5f61145b6114566114518461142f565b611438565b611330565b9050919050565b61146b81611441565b82525050565b5f6060820190506114845f830186611462565b818103602083015261149681856112d8565b905081810360408301526114aa81846112d8565b9050949350505050565b5f819050919050565b6114c6816114b4565b81146114d0575f80fd5b50565b5f815190506114e1816114bd565b92915050565b5f602082840312156114fc576114fb610ec7565b5b5f611509848285016114d3565b91505092915050565b7f4e487b71000000000000000000000000000000000000000000000000000000005f52602260045260245ffd5b5f600282049050600182168061155657607f821691505b60208210810361156957611568611512565b5b50919050565b5f819050815f5260205f209050919050565b5f6020601f8301049050919050565b5f82821b905092915050565b5f600883026115cb7fffffffffffffffffffffffffffffffffffffffffffffffffffffffffffffffff82611590565b6115d58683611590565b95508019841693508086168417925050509392505050565b5f6116076116026115fd84611330565b611438565b611330565b9050919050565b5f819050919050565b611620836115ed565b61163461162c8261160e565b84845461159c565b825550505050565b5f90565b61164861163c565b611653818484611617565b505050565b5b818110156116765761166b5f82611640565b600181019050611659565b5050565b601f8211156116bb5761168c8161156f565b61169584611581565b810160208510156116a4578190505b6116b86116b085611581565b830182611658565b50505b505050565b5f82821c905092915050565b5f6116db5f19846008026116c0565b1980831691505092915050565b5f6116f383836116cc565b9150826002028217905092915050565b61170c826112a6565b67ffffffffffffffff81111561172557611724610fc3565b5b61172f825461153f565b61173a82828561167a565b5f60209050601f83116001811461176b575f8415611759578287015190505b61176385826116e8565b8655506117ca565b601f1984166117798661156f565b5f5b828110156117a05784890151825560018201915060208501945060208101905061177b565b868310156117bd57848901516117b9601f8916826116cc565b8355505b6001600288020188555050505b50505050505056fea264697066735822122095b57b791c90682d1b049d8e8e124875cac7732f508a8aae595a377b4a2c93aa64736f6c63430008140033",
			"opcodes": "PUSH1 0x80 PUSH1 0x40 MSTORE CALLVALUE DUP1 ISZERO PUSH2 0xF JUMPI PUSH0 DUP1 REVERT JUMPDEST POP CALLER PUSH0 DUP1 PUSH2 0x100 EXP DUP2 SLOAD DUP2 PUSH20 0xFFFFFFFFFFFFFFFFFFFFFFFFFFFFFFFFFFFFFFFF MUL NOT AND SWAP1 DUP4 PUSH20 0xFFFFFFFFFFFFFFFFFFFFFFFFFFFFFFFFFFFFFFFF AND MUL OR SWAP1 SSTORE POP PUSH2 0x1808 DUP1 PUSH2 0x5C PUSH0 CODECOPY PUSH0 RETURN INVALID PUSH1 0x80 PUSH1 0x40 MSTORE CALLVALUE DUP1 ISZERO PUSH2 0xF JUMPI PUSH0 DUP1 REVERT JUMPDEST POP PUSH1 0x4 CALLDATASIZE LT PUSH2 0x4A JUMPI PUSH0 CALLDATALOAD PUSH1 0xE0 SHR DUP1 PUSH4 0x177D2A74 EQ PUSH2 0x4E JUMPI DUP1 PUSH4 0x1828983A EQ PUSH2 0x6A JUMPI DUP1 PUSH4 0x8DA5CB5B EQ PUSH2 0x9A JUMPI DUP1 PUSH4 0xAD02B1C9 EQ PUSH2 0xB8 JUMPI JUMPDEST PUSH0 DUP1 REVERT JUMPDEST PUSH2 0x68 PUSH1 0x4 DUP1 CALLDATASIZE SUB DUP2 ADD SWAP1 PUSH2 0x63 SWAP2 SWAP1 PUSH2 0xF29 JUMP JUMPDEST PUSH2 0xD4 JUMP JUMPDEST STOP JUMPDEST PUSH2 0x84 PUSH1 0x4 DUP1 CALLDATASIZE SUB DUP2 ADD SWAP1 PUSH2 0x7F SWAP2 SWAP1 PUSH2 0xF29 JUMP JUMPDEST PUSH2 0x1B8 JUMP JUMPDEST PUSH1 0x40 MLOAD PUSH2 0x91 SWAP2 SWAP1 PUSH2 0xF6E JUMP JUMPDEST PUSH1 0x40 MLOAD DUP1 SWAP2 SUB SWAP1 RETURN JUMPDEST PUSH2 0xA2 PUSH2 0x1D5 JUMP JUMPDEST PUSH1 0x40 MLOAD PUSH2 0xAF SWAP2 SWAP1 PUSH2 0xF96 JUMP JUMPDEST PUSH1 0x40 MLOAD DUP1 SWAP2 SUB SWAP1 RETURN JUMPDEST PUSH2 0xD2 PUSH1 0x4 DUP1 CALLDATASIZE SUB DUP2 ADD SWAP1 PUSH2 0xCD SWAP2 SWAP1 PUSH2 0x11A8 JUMP JUMPDEST PUSH2 0x1F8 JUMP JUMPDEST STOP JUMPDEST PUSH0 DUP1 SLOAD SWAP1 PUSH2 0x100 EXP SWAP1 DIV PUSH20 0xFFFFFFFFFFFFFFFFFFFFFFFFFFFFFFFFFFFFFFFF AND PUSH20 0xFFFFFFFFFFFFFFFFFFFFFFFFFFFFFFFFFFFFFFFF AND CALLER PUSH20 0xFFFFFFFFFFFFFFFFFFFFFFFFFFFFFFFFFFFFFFFF AND EQ PUSH2 0x161 JUMPI PUSH1 0x40 MLOAD PUSH32 0x8C379A000000000000000000000000000000000000000000000000000000000 DUP2 MSTORE PUSH1 0x4 ADD PUSH2 0x158 SWAP1 PUSH2 0x1249 JUMP JUMPDEST PUSH1 0x40 MLOAD DUP1 SWAP2 SUB SWAP1 REVERT JUMPDEST PUSH1 0x1 DUP1 PUSH0 DUP4 PUSH20 0xFFFFFFFFFFFFFFFFFFFFFFFFFFFFFFFFFFFFFFFF AND PUSH20 0xFFFFFFFFFFFFFFFFFFFFFFFFFFFFFFFFFFFFFFFF AND DUP2 MSTORE PUSH1 0x20 ADD SWAP1 DUP2 MSTORE PUSH1 0x20 ADD PUSH0 KECCAK256 PUSH0 PUSH2 0x100 EXP DUP2 SLOAD DUP2 PUSH1 0xFF MUL NOT AND SWAP1 DUP4 ISZERO ISZERO MUL OR SWAP1 SSTORE POP POP JUMP JUMPDEST PUSH1 0x1 PUSH1 0x20 MSTORE DUP1 PUSH0 MSTORE PUSH1 0x40 PUSH0 KECCAK256 PUSH0 SWAP2 POP SLOAD SWAP1 PUSH2 0x100 EXP SWAP1 DIV PUSH1 0xFF AND DUP2 JUMP JUMPDEST PUSH0 DUP1 SLOAD SWAP1 PUSH2 0x100 EXP SWAP1 DIV PUSH20 0xFFFFFFFFFFFFFFFFFFFFFFFFFFFFFFFFFFFFFFFF AND DUP2 JUMP JUMPDEST PUSH0 DUP1 SLOAD SWAP1 PUSH2 0x100 EXP SWAP1 DIV PUSH20 0xFFFFFFFFFFFFFFFFFFFFFFFFFFFFFFFFFFFFFFFF AND PUSH20 0xFFFFFFFFFFFFFFFFFFFFFFFFFFFFFFFFFFFFFFFF AND CALLER PUSH20 0xFFFFFFFFFFFFFFFFFFFFFFFFFFFFFFFFFFFFFFFF AND EQ DUP1 PUSH2 0x297 JUMPI POP PUSH1 0x1 PUSH0 CALLER PUSH20 0xFFFFFFFFFFFFFFFFFFFFFFFFFFFFFFFFFFFFFFFF AND PUSH20 0xFFFFFFFFFFFFFFFFFFFFFFFFFFFFFFFFFFFFFFFF AND DUP2 MSTORE PUSH1 0x20 ADD SWAP1 DUP2 MSTORE PUSH1 0x20 ADD PUSH0 KECCAK256 PUSH0 SWAP1 SLOAD SWAP1 PUSH2 0x100 EXP SWAP1 DIV PUSH1 0xFF AND JUMPDEST PUSH2 0x2D6 JUMPI PUSH1 0x40 MLOAD PUSH32 0x8C379A000000000000000000000000000000000000000000000000000000000 DUP2 MSTORE PUSH1 0x4 ADD PUSH2 0x2CD SWAP1 PUSH2 0x1249 JUMP JUMPDEST PUSH1 0x40 MLOAD DUP1 SWAP2 SUB SWAP1 REVERT JUMPDEST PUSH2 0x34A PUSH1 0x40 MLOAD DUP1 PUSH1 0x40 ADD PUSH1 0x40 MSTORE DUP1 PUSH1 0x3 DUP2 MSTORE PUSH1 0x20 ADD PUSH32 0x55524C0000000000000000000000000000000000000000000000000000000000 DUP2 MSTORE POP PUSH1 0x40 MLOAD DUP1 PUSH1 0x40 ADD PUSH1 0x40 MSTORE DUP1 PUSH1 0x1C DUP2 MSTORE PUSH1 0x20 ADD PUSH32 0x68747470733A2F2F796F75726E6577736170692E636F6D2F6E65777300000000 DUP2 MSTORE POP PUSH2 0x34E JUMP JUMPDEST POP POP JUMP JUMPDEST PUSH0 DUP1 PUSH20 0xFFFFFFFFFFFFFFFFFFFFFFFFFFFFFFFFFFFFFFFF AND PUSH1 0x3 PUSH0 SWAP1 SLOAD SWAP1 PUSH2 0x100 EXP SWAP1 DIV PUSH20 0xFFFFFFFFFFFFFFFFFFFFFFFFFFFFFFFFFFFFFFFF AND PUSH20 0xFFFFFFFFFFFFFFFFFFFFFFFFFFFFFFFFFFFFFFFF AND EQ DUP1 PUSH2 0x3D2 JUMPI POP PUSH0 PUSH2 0x3D0 PUSH1 0x3 PUSH0 SWAP1 SLOAD SWAP1 PUSH2 0x100 EXP SWAP1 DIV PUSH20 0xFFFFFFFFFFFFFFFFFFFFFFFFFFFFFFFFFFFFFFFF AND PUSH2 0x70E JUMP JUMPDEST EQ JUMPDEST ISZERO PUSH2 0x3E2 JUMPI PUSH2 0x3E0 PUSH0 PUSH2 0x718 JUMP JUMPDEST POP JUMPDEST PUSH1 0x3 PUSH0 SWAP1 SLOAD SWAP1 PUSH2 0x100 EXP SWAP1 DIV PUSH20 0xFFFFFFFFFFFFFFFFFFFFFFFFFFFFFFFFFFFFFFFF AND PUSH20 0xFFFFFFFFFFFFFFFFFFFFFFFFFFFFFFFFFFFFFFFF AND PUSH4 0x38CC4831 PUSH1 0x40 MLOAD DUP2 PUSH4 0xFFFFFFFF AND PUSH1 0xE0 SHL DUP2 MSTORE PUSH1 0x4 ADD PUSH1 0x20 PUSH1 0x40 MLOAD DUP1 DUP4 SUB DUP2 PUSH0 DUP8 GAS CALL ISZERO DUP1 ISZERO PUSH2 0x44D JUMPI RETURNDATASIZE PUSH0 DUP1 RETURNDATACOPY RETURNDATASIZE PUSH0 REVERT JUMPDEST POP POP POP POP PUSH1 0x40 MLOAD RETURNDATASIZE PUSH1 0x1F NOT PUSH1 0x1F DUP3 ADD AND DUP3 ADD DUP1 PUSH1 0x40 MSTORE POP DUP2 ADD SWAP1 PUSH2 0x471 SWAP2 SWAP1 PUSH2 0x127B JUMP JUMPDEST PUSH20 0xFFFFFFFFFFFFFFFFFFFFFFFFFFFFFFFFFFFFFFFF AND PUSH1 0x2 PUSH0 SWAP1 SLOAD SWAP1 PUSH2 0x100 EXP SWAP1 DIV PUSH20 0xFFFFFFFFFFFFFFFFFFFFFFFFFFFFFFFFFFFFFFFF AND PUSH20 0xFFFFFFFFFFFFFFFFFFFFFFFFFFFFFFFFFFFFFFFF AND EQ PUSH2 0x593 JUMPI PUSH1 0x3 PUSH0 SWAP1 SLOAD SWAP1 PUSH2 0x100 EXP SWAP1 DIV PUSH20 0xFFFFFFFFFFFFFFFFFFFFFFFFFFFFFFFFFFFFFFFF AND PUSH20 0xFFFFFFFFFFFFFFFFFFFFFFFFFFFFFFFFFFFFFFFF AND PUSH4 0x38CC4831 PUSH1 0x40 MLOAD DUP2 PUSH4 0xFFFFFFFF AND PUSH1 0xE0 SHL DUP2 MSTORE PUSH1 0x4 ADD PUSH1 0x20 PUSH1 0x40 MLOAD DUP1 DUP4 SUB DUP2 PUSH0 DUP8 GAS CALL ISZERO DUP1 ISZERO PUSH2 0x52F JUMPI RETURNDATASIZE PUSH0 DUP1 RETURNDATACOPY RETURNDATASIZE PUSH0 REVERT JUMPDEST POP POP POP POP PUSH1 0x40 MLOAD RETURNDATASIZE PUSH1 0x1F NOT PUSH1 0x1F DUP3 ADD AND DUP3 ADD DUP1 PUSH1 0x40 MSTORE POP DUP2 ADD SWAP1 PUSH2 0x553 SWAP2 SWAP1 PUSH2 0x127B JUMP JUMPDEST PUSH1 0x2 PUSH0 PUSH2 0x100 EXP DUP2 SLOAD DUP2 PUSH20 0xFFFFFFFFFFFFFFFFFFFFFFFFFFFFFFFFFFFFFFFF MUL NOT AND SWAP1 DUP4 PUSH20 0xFFFFFFFFFFFFFFFFFFFFFFFFFFFFFFFFFFFFFFFF AND MUL OR SWAP1 SSTORE POP JUMPDEST PUSH0 PUSH1 0x2 PUSH0 SWAP1 SLOAD SWAP1 PUSH2 0x100 EXP SWAP1 DIV PUSH20 0xFFFFFFFFFFFFFFFFFFFFFFFFFFFFFFFFFFFFFFFF AND PUSH20 0xFFFFFFFFFFFFFFFFFFFFFFFFFFFFFFFFFFFFFFFF AND PUSH4 0x524F3889 DUP6 PUSH1 0x40 MLOAD DUP3 PUSH4 0xFFFFFFFF AND PUSH1 0xE0 SHL DUP2 MSTORE PUSH1 0x4 ADD PUSH2 0x5EE SWAP2 SWAP1 PUSH2 0x1310 JUMP JUMPDEST PUSH1 0x20 PUSH1 0x40 MLOAD DUP1 DUP4 SUB DUP2 PUSH0 DUP8 GAS CALL ISZERO DUP1 ISZERO PUSH2 0x60A JUMPI RETURNDATASIZE PUSH0 DUP1 RETURNDATACOPY RETURNDATASIZE PUSH0 REVERT JUMPDEST POP POP POP POP PUSH1 0x40 MLOAD RETURNDATASIZE PUSH1 0x1F NOT PUSH1 0x1F DUP3 ADD AND DUP3 ADD DUP1 PUSH1 0x40 MSTORE POP DUP2 ADD SWAP1 PUSH2 0x62E SWAP2 SWAP1 PUSH2 0x1363 JUMP JUMPDEST SWAP1 POP PUSH3 0x30D40 GASPRICE PUSH2 0x63F SWAP2 SWAP1 PUSH2 0x13BB JUMP JUMPDEST PUSH8 0xDE0B6B3A7640000 PUSH2 0x652 SWAP2 SWAP1 PUSH2 0x13FC JUMP JUMPDEST DUP2 GT ISZERO PUSH2 0x664 JUMPI PUSH0 DUP1 SHL SWAP2 POP POP PUSH2 0x708 JUMP JUMPDEST PUSH1 0x2 PUSH0 SWAP1 SLOAD SWAP1 PUSH2 0x100 EXP SWAP1 DIV PUSH20 0xFFFFFFFFFFFFFFFFFFFFFFFFFFFFFFFFFFFFFFFF AND PUSH20 0xFFFFFFFFFFFFFFFFFFFFFFFFFFFFFFFFFFFFFFFF AND PUSH4 0xADF59F99 DUP3 PUSH0 DUP8 DUP8 PUSH1 0x40 MLOAD DUP6 PUSH4 0xFFFFFFFF AND PUSH1 0xE0 SHL DUP2 MSTORE PUSH1 0x4 ADD PUSH2 0x6C3 SWAP4 SWAP3 SWAP2 SWAP1 PUSH2 0x1471 JUMP JUMPDEST PUSH1 0x20 PUSH1 0x40 MLOAD DUP1 DUP4 SUB DUP2 DUP6 DUP9 GAS CALL ISZERO DUP1 ISZERO PUSH2 0x6DF JUMPI RETURNDATASIZE PUSH0 DUP1 RETURNDATACOPY RETURNDATASIZE PUSH0 REVERT JUMPDEST POP POP POP POP POP PUSH1 0x40 MLOAD RETURNDATASIZE PUSH1 0x1F NOT PUSH1 0x1F DUP3 ADD AND DUP3 ADD DUP1 PUSH1 0x40 MSTORE POP DUP2 ADD SWAP1 PUSH2 0x704 SWAP2 SWAP1 PUSH2 0x14E7 JUMP JUMPDEST SWAP2 POP POP JUMPDEST SWAP3 SWAP2 POP POP JUMP JUMPDEST PUSH0 DUP2 EXTCODESIZE SWAP1 POP SWAP2 SWAP1 POP JUMP JUMPDEST PUSH0 PUSH2 0x721 PUSH2 0x728 JUMP JUMPDEST SWAP1 POP SWAP2 SWAP1 POP JUMP JUMPDEST PUSH0 DUP1 PUSH2 0x747 PUSH20 0x1D3B2638A7CC9F2CB3D298A3DA7A90B67E5506ED PUSH2 0x70E JUMP JUMPDEST GT ISZERO PUSH2 0x7E8 JUMPI PUSH20 0x1D3B2638A7CC9F2CB3D298A3DA7A90B67E5506ED PUSH1 0x3 PUSH0 PUSH2 0x100 EXP DUP2 SLOAD DUP2 PUSH20 0xFFFFFFFFFFFFFFFFFFFFFFFFFFFFFFFFFFFFFFFF MUL NOT AND SWAP1 DUP4 PUSH20 0xFFFFFFFFFFFFFFFFFFFFFFFFFFFFFFFFFFFFFFFF AND MUL OR SWAP1 SSTORE POP PUSH2 0x7DF PUSH1 0x40 MLOAD DUP1 PUSH1 0x40 ADD PUSH1 0x40 MSTORE DUP1 PUSH1 0xB DUP2 MSTORE PUSH1 0x20 ADD PUSH32 0x6574685F6D61696E6E6574000000000000000000000000000000000000000000 DUP2 MSTORE POP PUSH2 0xEAB JUMP JUMPDEST PUSH1 0x1 SWAP1 POP PUSH2 0xEA8 JUMP JUMPDEST PUSH0 PUSH2 0x806 PUSH20 0xC03A2615D5EFAF5F49F60B7BB6583EAEC212FDF1 PUSH2 0x70E JUMP JUMPDEST GT ISZERO PUSH2 0x8A7 JUMPI PUSH20 0xC03A2615D5EFAF5F49F60B7BB6583EAEC212FDF1 PUSH1 0x3 PUSH0 PUSH2 0x100 EXP DUP2 SLOAD DUP2 PUSH20 0xFFFFFFFFFFFFFFFFFFFFFFFFFFFFFFFFFFFFFFFF MUL NOT AND SWAP1 DUP4 PUSH20 0xFFFFFFFFFFFFFFFFFFFFFFFFFFFFFFFFFFFFFFFF AND MUL OR SWAP1 SSTORE POP PUSH2 0x89E PUSH1 0x40 MLOAD DUP1 PUSH1 0x40 ADD PUSH1 0x40 MSTORE DUP1 PUSH1 0xC DUP2 MSTORE PUSH1 0x20 ADD PUSH32 0x6574685F726F707374656E330000000000000000000000000000000000000000 DUP2 MSTORE POP PUSH2 0xEAB JUMP JUMPDEST PUSH1 0x1 SWAP1 POP PUSH2 0xEA8 JUMP JUMPDEST PUSH0 PUSH2 0x8C5 PUSH20 0xB7A07BCF2BA2F2703B24C0691B5278999C59AC7E PUSH2 0x70E JUMP JUMPDEST GT ISZERO PUSH2 0x966 JUMPI PUSH20 0xB7A07BCF2BA2F2703B24C0691B5278999C59AC7E PUSH1 0x3 PUSH0 PUSH2 0x100 EXP DUP2 SLOAD DUP2 PUSH20 0xFFFFFFFFFFFFFFFFFFFFFFFFFFFFFFFFFFFFFFFF MUL NOT AND SWAP1 DUP4 PUSH20 0xFFFFFFFFFFFFFFFFFFFFFFFFFFFFFFFFFFFFFFFF AND MUL OR SWAP1 SSTORE POP PUSH2 0x95D PUSH1 0x40 MLOAD DUP1 PUSH1 0x40 ADD PUSH1 0x40 MSTORE DUP1 PUSH1 0x9 DUP2 MSTORE PUSH1 0x20 ADD PUSH32 0x6574685F6B6F76616E0000000000000000000000000000000000000000000000 DUP2 MSTORE POP PUSH2 0xEAB JUMP JUMPDEST PUSH1 0x1 SWAP1 POP PUSH2 0xEA8 JUMP JUMPDEST PUSH0 PUSH2 0x984 PUSH20 0x146500CFD35B22E4A392FE0ADC06DE1A1368ED48 PUSH2 0x70E JUMP JUMPDEST GT ISZERO PUSH2 0xA25 JUMPI PUSH20 0x146500CFD35B22E4A392FE0ADC06DE1A1368ED48 PUSH1 0x3 PUSH0 PUSH2 0x100 EXP DUP2 SLOAD DUP2 PUSH20 0xFFFFFFFFFFFFFFFFFFFFFFFFFFFFFFFFFFFFFFFF MUL NOT AND SWAP1 DUP4 PUSH20 0xFFFFFFFFFFFFFFFFFFFFFFFFFFFFFFFFFFFFFFFF AND MUL OR SWAP1 SSTORE POP PUSH2 0xA1C PUSH1 0x40 MLOAD DUP1 PUSH1 0x40 ADD PUSH1 0x40 MSTORE DUP1 PUSH1 0xB DUP2 MSTORE PUSH1 0x20 ADD PUSH32 0x6574685F72696E6B656279000000000000000000000000000000000000000000 DUP2 MSTORE POP PUSH2 0xEAB JUMP JUMPDEST PUSH1 0x1 SWAP1 POP PUSH2 0xEA8 JUMP JUMPDEST PUSH0 PUSH2 0xA43 PUSH20 0xA2998EFD205FB9D4B4963AFB70778D6354AD3A41 PUSH2 0x70E JUMP JUMPDEST GT ISZERO PUSH2 0xAE4 JUMPI PUSH20 0xA2998EFD205FB9D4B4963AFB70778D6354AD3A41 PUSH1 0x3 PUSH0 PUSH2 0x100 EXP DUP2 SLOAD DUP2 PUSH20 0xFFFFFFFFFFFFFFFFFFFFFFFFFFFFFFFFFFFFFFFF MUL NOT AND SWAP1 DUP4 PUSH20 0xFFFFFFFFFFFFFFFFFFFFFFFFFFFFFFFFFFFFFFFF AND MUL OR SWAP1 SSTORE POP PUSH2 0xADB PUSH1 0x40 MLOAD DUP1 PUSH1 0x40 ADD PUSH1 0x40 MSTORE DUP1 PUSH1 0xA DUP2 MSTORE PUSH1 0x20 ADD PUSH32 0x6574685F676F65726C6900000000000000000000000000000000000000000000 DUP2 MSTORE POP PUSH2 0xEAB JUMP JUMPDEST PUSH1 0x1 SWAP1 POP PUSH2 0xEA8 JUMP JUMPDEST PUSH0 PUSH2 0xB02 PUSH20 0x90A0F94702C9630036FB9846B52BF31A1C991A84 PUSH2 0x70E JUMP JUMPDEST GT ISZERO PUSH2 0xBA3 JUMPI PUSH20 0x90A0F94702C9630036FB9846B52BF31A1C991A84 PUSH1 0x3 PUSH0 PUSH2 0x100 EXP DUP2 SLOAD DUP2 PUSH20 0xFFFFFFFFFFFFFFFFFFFFFFFFFFFFFFFFFFFFFFFF MUL NOT AND SWAP1 DUP4 PUSH20 0xFFFFFFFFFFFFFFFFFFFFFFFFFFFFFFFFFFFFFFFF AND MUL OR SWAP1 SSTORE POP PUSH2 0xB9A PUSH1 0x40 MLOAD DUP1 PUSH1 0x40 ADD PUSH1 0x40 MSTORE DUP1 PUSH1 0xB DUP2 MSTORE PUSH1 0x20 ADD PUSH32 0x6273635F6D61696E6E6574000000000000000000000000000000000000000000 DUP2 MSTORE POP PUSH2 0xEAB JUMP JUMPDEST PUSH1 0x1 SWAP1 POP PUSH2 0xEA8 JUMP JUMPDEST PUSH0 PUSH2 0xBC1 PUSH20 0x816EC2AF1B56183F82F8C05759E99FEC3C3DE609 PUSH2 0x70E JUMP JUMPDEST GT ISZERO PUSH2 0xC62 JUMPI PUSH20 0x816EC2AF1B56183F82F8C05759E99FEC3C3DE609 PUSH1 0x3 PUSH0 PUSH2 0x100 EXP DUP2 SLOAD DUP2 PUSH20 0xFFFFFFFFFFFFFFFFFFFFFFFFFFFFFFFFFFFFFFFF MUL NOT AND SWAP1 DUP4 PUSH20 0xFFFFFFFFFFFFFFFFFFFFFFFFFFFFFFFFFFFFFFFF AND MUL OR SWAP1 SSTORE POP PUSH2 0xC59 PUSH1 0x40 MLOAD DUP1 PUSH1 0x40 ADD PUSH1 0x40 MSTORE DUP1 PUSH1 0xF DUP2 MSTORE PUSH1 0x20 ADD PUSH32 0x706F6C79676F6E5F6D61696E6E65740000000000000000000000000000000000 DUP2 MSTORE POP PUSH2 0xEAB JUMP JUMPDEST PUSH1 0x1 SWAP1 POP PUSH2 0xEA8 JUMP JUMPDEST PUSH0 PUSH2 0xC80 PUSH20 0x14B31A1C66A9F3D18DFAC2D123FE8CE5847B7F85 PUSH2 0x70E JUMP JUMPDEST GT ISZERO PUSH2 0xD21 JUMPI PUSH20 0x14B31A1C66A9F3D18DFAC2D123FE8CE5847B7F85 PUSH1 0x3 PUSH0 PUSH2 0x100 EXP DUP2 SLOAD DUP2 PUSH20 0xFFFFFFFFFFFFFFFFFFFFFFFFFFFFFFFFFFFFFFFF MUL NOT AND SWAP1 DUP4 PUSH20 0xFFFFFFFFFFFFFFFFFFFFFFFFFFFFFFFFFFFFFFFF AND MUL OR SWAP1 SSTORE POP PUSH2 0xD18 PUSH1 0x40 MLOAD DUP1 PUSH1 0x40 ADD PUSH1 0x40 MSTORE DUP1 PUSH1 0xF DUP2 MSTORE PUSH1 0x20 ADD PUSH32 0x7365706F6C69615F6D61696E6E65740000000000000000000000000000000000 DUP2 MSTORE POP PUSH2 0xEAB JUMP JUMPDEST PUSH1 0x1 SWAP1 POP PUSH2 0xEA8 JUMP JUMPDEST PUSH0 PUSH2 0xD3F PUSH20 0x6F485C8BF6FC43EA212E93BBF8CE046C7F1CB475 PUSH2 0x70E JUMP JUMPDEST GT ISZERO PUSH2 0xDA2 JUMPI PUSH20 0x6F485C8BF6FC43EA212E93BBF8CE046C7F1CB475 PUSH1 0x3 PUSH0 PUSH2 0x100 EXP DUP2 SLOAD DUP2 PUSH20 0xFFFFFFFFFFFFFFFFFFFFFFFFFFFFFFFFFFFFFFFF MUL NOT AND SWAP1 DUP4 PUSH20 0xFFFFFFFFFFFFFFFFFFFFFFFFFFFFFFFFFFFFFFFF AND MUL OR SWAP1 SSTORE POP PUSH1 0x1 SWAP1 POP PUSH2 0xEA8 JUMP JUMPDEST PUSH0 PUSH2 0xDC0 PUSH20 0x20E12A1F859B3FEAE5FB2A0A32C18F5A65555BBF PUSH2 0x70E JUMP JUMPDEST GT ISZERO PUSH2 0xE23 JUMPI PUSH20 0x20E12A1F859B3FEAE5FB2A0A32C18F5A65555BBF PUSH1 0x3 PUSH0 PUSH2 0x100 EXP DUP2 SLOAD DUP2 PUSH20 0xFFFFFFFFFFFFFFFFFFFFFFFFFFFFFFFFFFFFFFFF MUL NOT AND SWAP1 DUP4 PUSH20 0xFFFFFFFFFFFFFFFFFFFFFFFFFFFFFFFFFFFFFFFF AND MUL OR SWAP1 SSTORE POP PUSH1 0x1 SWAP1 POP PUSH2 0xEA8 JUMP JUMPDEST PUSH0 PUSH2 0xE41 PUSH20 0x51EFAF4C8B3C9AFBD5AB9F4BBC82784AB6EF8FAA PUSH2 0x70E JUMP JUMPDEST GT ISZERO PUSH2 0xEA4 JUMPI PUSH20 0x51EFAF4C8B3C9AFBD5AB9F4BBC82784AB6EF8FAA PUSH1 0x3 PUSH0 PUSH2 0x100 EXP DUP2 SLOAD DUP2 PUSH20 0xFFFFFFFFFFFFFFFFFFFFFFFFFFFFFFFFFFFFFFFF MUL NOT AND SWAP1 DUP4 PUSH20 0xFFFFFFFFFFFFFFFFFFFFFFFFFFFFFFFFFFFFFFFF AND MUL OR SWAP1 SSTORE POP PUSH1 0x1 SWAP1 POP PUSH2 0xEA8 JUMP JUMPDEST PUSH0 SWAP1 POP JUMPDEST SWAP1 JUMP JUMPDEST DUP1 PUSH1 0x4 SWAP1 DUP2 PUSH2 0xEBA SWAP2 SWAP1 PUSH2 0x1703 JUMP JUMPDEST POP POP JUMP JUMPDEST PUSH0 PUSH1 0x40 MLOAD SWAP1 POP SWAP1 JUMP JUMPDEST PUSH0 DUP1 REVERT JUMPDEST PUSH0 DUP1 REVERT JUMPDEST PUSH0 PUSH20 0xFFFFFFFFFFFFFFFFFFFFFFFFFFFFFFFFFFFFFFFF DUP3 AND SWAP1 POP SWAP2 SWAP1 POP JUMP JUMPDEST PUSH0 PUSH2 0xEF8 DUP3 PUSH2 0xECF JUMP JUMPDEST SWAP1 POP SWAP2 SWAP1 POP JUMP JUMPDEST PUSH2 0xF08 DUP2 PUSH2 0xEEE JUMP JUMPDEST DUP2 EQ PUSH2 0xF12 JUMPI PUSH0 DUP1 REVERT JUMPDEST POP JUMP JUMPDEST PUSH0 DUP2 CALLDATALOAD SWAP1 POP PUSH2 0xF23 DUP2 PUSH2 0xEFF JUMP JUMPDEST SWAP3 SWAP2 POP POP JUMP JUMPDEST PUSH0 PUSH1 0x20 DUP3 DUP5 SUB SLT ISZERO PUSH2 0xF3E JUMPI PUSH2 0xF3D PUSH2 0xEC7 JUMP JUMPDEST JUMPDEST PUSH0 PUSH2 0xF4B DUP5 DUP3 DUP6 ADD PUSH2 0xF15 JUMP JUMPDEST SWAP2 POP POP SWAP3 SWAP2 POP POP JUMP JUMPDEST PUSH0 DUP2 ISZERO ISZERO SWAP1 POP SWAP2 SWAP1 POP JUMP JUMPDEST PUSH2 0xF68 DUP2 PUSH2 0xF54 JUMP JUMPDEST DUP3 MSTORE POP POP JUMP JUMPDEST PUSH0 PUSH1 0x20 DUP3 ADD SWAP1 POP PUSH2 0xF81 PUSH0 DUP4 ADD DUP5 PUSH2 0xF5F JUMP JUMPDEST SWAP3 SWAP2 POP POP JUMP JUMPDEST PUSH2 0xF90 DUP2 PUSH2 0xEEE JUMP JUMPDEST DUP3 MSTORE POP POP JUMP JUMPDEST PUSH0 PUSH1 0x20 DUP3 ADD SWAP1 POP PUSH2 0xFA9 PUSH0 DUP4 ADD DUP5 PUSH2 0xF87 JUMP JUMPDEST SWAP3 SWAP2 POP POP JUMP JUMPDEST PUSH0 DUP1 REVERT JUMPDEST PUSH0 PUSH1 0x1F NOT PUSH1 0x1F DUP4 ADD AND SWAP1 POP SWAP2 SWAP1 POP JUMP JUMPDEST PUSH32 0x4E487B7100000000000000000000000000000000000000000000000000000000 PUSH0 MSTORE PUSH1 0x41 PUSH1 0x4 MSTORE PUSH1 0x24 PUSH0 REVERT JUMPDEST PUSH2 0xFF9 DUP3 PUSH2 0xFB3 JUMP JUMPDEST DUP2 ADD DUP2 DUP2 LT PUSH8 0xFFFFFFFFFFFFFFFF DUP3 GT OR ISZERO PUSH2 0x1018 JUMPI PUSH2 0x1017 PUSH2 0xFC3 JUMP JUMPDEST JUMPDEST DUP1 PUSH1 0x40 MSTORE POP POP POP JUMP JUMPDEST PUSH0 PUSH2 0x102A PUSH2 0xEBE JUMP JUMPDEST SWAP1 POP PUSH2 0x1036 DUP3 DUP3 PUSH2 0xFF0 JUMP JUMPDEST SWAP2 SWAP1 POP JUMP JUMPDEST PUSH0 DUP1 REVERT JUMPDEST PUSH0 DUP1 REVERT JUMPDEST PUSH0 DUP1 REVERT JUMPDEST PUSH0 PUSH8 0xFFFFFFFFFFFFFFFF DUP3 GT ISZERO PUSH2 0x1061 JUMPI PUSH2 0x1060 PUSH2 0xFC3 JUMP JUMPDEST JUMPDEST PUSH2 0x106A DUP3 PUSH2 0xFB3 JUMP JUMPDEST SWAP1 POP PUSH1 0x20 DUP2 ADD SWAP1 POP SWAP2 SWAP1 POP JUMP JUMPDEST DUP3 DUP2 DUP4 CALLDATACOPY PUSH0 DUP4 DUP4 ADD MSTORE POP POP POP JUMP JUMPDEST PUSH0 PUSH2 0x1097 PUSH2 0x1092 DUP5 PUSH2 0x1047 JUMP JUMPDEST PUSH2 0x1021 JUMP JUMPDEST SWAP1 POP DUP3 DUP2 MSTORE PUSH1 0x20 DUP2 ADD DUP5 DUP5 DUP5 ADD GT ISZERO PUSH2 0x10B3 JUMPI PUSH2 0x10B2 PUSH2 0x1043 JUMP JUMPDEST JUMPDEST PUSH2 0x10BE DUP5 DUP3 DUP6 PUSH2 0x1077 JUMP JUMPDEST POP SWAP4 SWAP3 POP POP POP JUMP JUMPDEST PUSH0 DUP3 PUSH1 0x1F DUP4 ADD SLT PUSH2 0x10DA JUMPI PUSH2 0x10D9 PUSH2 0x103F JUMP JUMPDEST JUMPDEST DUP2 CALLDATALOAD PUSH2 0x10EA DUP5 DUP3 PUSH1 0x20 DUP7 ADD PUSH2 0x1085 JUMP JUMPDEST SWAP2 POP POP SWAP3 SWAP2 POP POP JUMP JUMPDEST PUSH0 PUSH1 0x60 DUP3 DUP5 SUB SLT ISZERO PUSH2 0x1108 JUMPI PUSH2 0x1107 PUSH2 0xFAF JUMP JUMPDEST JUMPDEST PUSH2 0x1112 PUSH1 0x60 PUSH2 0x1021 JUMP JUMPDEST SWAP1 POP PUSH0 DUP3 ADD CALLDATALOAD PUSH8 0xFFFFFFFFFFFFFFFF DUP2 GT ISZERO PUSH2 0x1131 JUMPI PUSH2 0x1130 PUSH2 0x103B JUMP JUMPDEST JUMPDEST PUSH2 0x113D DUP5 DUP3 DUP6 ADD PUSH2 0x10C6 JUMP JUMPDEST PUSH0 DUP4 ADD MSTORE POP PUSH1 0x20 DUP3 ADD CALLDATALOAD PUSH8 0xFFFFFFFFFFFFFFFF DUP2 GT ISZERO PUSH2 0x1160 JUMPI PUSH2 0x115F PUSH2 0x103B JUMP JUMPDEST JUMPDEST PUSH2 0x116C DUP5 DUP3 DUP6 ADD PUSH2 0x10C6 JUMP JUMPDEST PUSH1 0x20 DUP4 ADD MSTORE POP PUSH1 0x40 DUP3 ADD CALLDATALOAD PUSH8 0xFFFFFFFFFFFFFFFF DUP2 GT ISZERO PUSH2 0x1190 JUMPI PUSH2 0x118F PUSH2 0x103B JUMP JUMPDEST JUMPDEST PUSH2 0x119C DUP5 DUP3 DUP6 ADD PUSH2 0x10C6 JUMP JUMPDEST PUSH1 0x40 DUP4 ADD MSTORE POP SWAP3 SWAP2 POP POP JUMP JUMPDEST PUSH0 PUSH1 0x20 DUP3 DUP5 SUB SLT ISZERO PUSH2 0x11BD JUMPI PUSH2 0x11BC PUSH2 0xEC7 JUMP JUMPDEST JUMPDEST PUSH0 DUP3 ADD CALLDATALOAD PUSH8 0xFFFFFFFFFFFFFFFF DUP2 GT ISZERO PUSH2 0x11DA JUMPI PUSH2 0x11D9 PUSH2 0xECB JUMP JUMPDEST JUMPDEST PUSH2 0x11E6 DUP5 DUP3 DUP6 ADD PUSH2 0x10F3 JUMP JUMPDEST SWAP2 POP POP SWAP3 SWAP2 POP POP JUMP JUMPDEST PUSH0 DUP3 DUP3 MSTORE PUSH1 0x20 DUP3 ADD SWAP1 POP SWAP3 SWAP2 POP POP JUMP JUMPDEST PUSH32 0x496E73756666696369656E74207065726D697373696F6E730000000000000000 PUSH0 DUP3 ADD MSTORE POP JUMP JUMPDEST PUSH0 PUSH2 0x1233 PUSH1 0x18 DUP4 PUSH2 0x11EF JUMP JUMPDEST SWAP2 POP PUSH2 0x123E DUP3 PUSH2 0x11FF JUMP JUMPDEST PUSH1 0x20 DUP3 ADD SWAP1 POP SWAP2 SWAP1 POP JUMP JUMPDEST PUSH0 PUSH1 0x20 DUP3 ADD SWAP1 POP DUP2 DUP2 SUB PUSH0 DUP4 ADD MSTORE PUSH2 0x1260 DUP2 PUSH2 0x1227 JUMP JUMPDEST SWAP1 POP SWAP2 SWAP1 POP JUMP JUMPDEST PUSH0 DUP2 MLOAD SWAP1 POP PUSH2 0x1275 DUP2 PUSH2 0xEFF JUMP JUMPDEST SWAP3 SWAP2 POP POP JUMP JUMPDEST PUSH0 PUSH1 0x20 DUP3 DUP5 SUB SLT ISZERO PUSH2 0x1290 JUMPI PUSH2 0x128F PUSH2 0xEC7 JUMP JUMPDEST JUMPDEST PUSH0 PUSH2 0x129D DUP5 DUP3 DUP6 ADD PUSH2 0x1267 JUMP JUMPDEST SWAP2 POP POP SWAP3 SWAP2 POP POP JUMP JUMPDEST PUSH0 DUP2 MLOAD SWAP1 POP SWAP2 SWAP1 POP JUMP JUMPDEST PUSH0 JUMPDEST DUP4 DUP2 LT ISZERO PUSH2 0x12CD JUMPI DUP1 DUP3 ADD MLOAD DUP2 DUP5 ADD MSTORE PUSH1 0x20 DUP2 ADD SWAP1 POP PUSH2 0x12B2 JUMP JUMPDEST PUSH0 DUP5 DUP5 ADD MSTORE POP POP POP POP JUMP JUMPDEST PUSH0 PUSH2 0x12E2 DUP3 PUSH2 0x12A6 JUMP JUMPDEST PUSH2 0x12EC DUP2 DUP6 PUSH2 0x11EF JUMP JUMPDEST SWAP4 POP PUSH2 0x12FC DUP2 DUP6 PUSH1 0x20 DUP7 ADD PUSH2 0x12B0 JUMP JUMPDEST PUSH2 0x1305 DUP2 PUSH2 0xFB3 JUMP JUMPDEST DUP5 ADD SWAP2 POP POP SWAP3 SWAP2 POP POP JUMP JUMPDEST PUSH0 PUSH1 0x20 DUP3 ADD SWAP1 POP DUP2 DUP2 SUB PUSH0 DUP4 ADD MSTORE PUSH2 0x1328 DUP2 DUP5 PUSH2 0x12D8 JUMP JUMPDEST SWAP1 POP SWAP3 SWAP2 POP POP JUMP JUMPDEST PUSH0 DUP2 SWAP1 POP SWAP2 SWAP1 POP JUMP JUMPDEST PUSH2 0x1342 DUP2 PUSH2 0x1330 JUMP JUMPDEST DUP2 EQ PUSH2 0x134C JUMPI PUSH0 DUP1 REVERT JUMPDEST POP JUMP JUMPDEST PUSH0 DUP2 MLOAD SWAP1 POP PUSH2 0x135D DUP2 PUSH2 0x1339 JUMP JUMPDEST SWAP3 SWAP2 POP POP JUMP JUMPDEST PUSH0 PUSH1 0x20 DUP3 DUP5 SUB SLT ISZERO PUSH2 0x1378 JUMPI PUSH2 0x1377 PUSH2 0xEC7 JUMP JUMPDEST JUMPDEST PUSH0 PUSH2 0x1385 DUP5 DUP3 DUP6 ADD PUSH2 0x134F JUMP JUMPDEST SWAP2 POP POP SWAP3 SWAP2 POP POP JUMP JUMPDEST PUSH32 0x4E487B7100000000000000000000000000000000000000000000000000000000 PUSH0 MSTORE PUSH1 0x11 PUSH1 0x4 MSTORE PUSH1 0x24 PUSH0 REVERT JUMPDEST PUSH0 PUSH2 0x13C5 DUP3 PUSH2 0x1330 JUMP JUMPDEST SWAP2 POP PUSH2 0x13D0 DUP4 PUSH2 0x1330 JUMP JUMPDEST SWAP3 POP DUP3 DUP3 MUL PUSH2 0x13DE DUP2 PUSH2 0x1330 JUMP JUMPDEST SWAP2 POP DUP3 DUP3 DIV DUP5 EQ DUP4 ISZERO OR PUSH2 0x13F5 JUMPI PUSH2 0x13F4 PUSH2 0x138E JUMP JUMPDEST JUMPDEST POP SWAP3 SWAP2 POP POP JUMP JUMPDEST PUSH0 PUSH2 0x1406 DUP3 PUSH2 0x1330 JUMP JUMPDEST SWAP2 POP PUSH2 0x1411 DUP4 PUSH2 0x1330 JUMP JUMPDEST SWAP3 POP DUP3 DUP3 ADD SWAP1 POP DUP1 DUP3 GT ISZERO PUSH2 0x1429 JUMPI PUSH2 0x1428 PUSH2 0x138E JUMP JUMPDEST JUMPDEST SWAP3 SWAP2 POP POP JUMP JUMPDEST PUSH0 DUP2 SWAP1 POP SWAP2 SWAP1 POP JUMP JUMPDEST PUSH0 DUP2 SWAP1 POP SWAP2 SWAP1 POP JUMP JUMPDEST PUSH0 PUSH2 0x145B PUSH2 0x1456 PUSH2 0x1451 DUP5 PUSH2 0x142F JUMP JUMPDEST PUSH2 0x1438 JUMP JUMPDEST PUSH2 0x1330 JUMP JUMPDEST SWAP1 POP SWAP2 SWAP1 POP JUMP JUMPDEST PUSH2 0x146B DUP2 PUSH2 0x1441 JUMP JUMPDEST DUP3 MSTORE POP POP JUMP JUMPDEST PUSH0 PUSH1 0x60 DUP3 ADD SWAP1 POP PUSH2 0x1484 PUSH0 DUP4 ADD DUP7 PUSH2 0x1462 JUMP JUMPDEST DUP2 DUP2 SUB PUSH1 0x20 DUP4 ADD MSTORE PUSH2 0x1496 DUP2 DUP6 PUSH2 0x12D8 JUMP JUMPDEST SWAP1 POP DUP2 DUP2 SUB PUSH1 0x40 DUP4 ADD MSTORE PUSH2 0x14AA DUP2 DUP5 PUSH2 0x12D8 JUMP JUMPDEST SWAP1 POP SWAP5 SWAP4 POP POP POP POP JUMP JUMPDEST PUSH0 DUP2 SWAP1 POP SWAP2 SWAP1 POP JUMP JUMPDEST PUSH2 0x14C6 DUP2 PUSH2 0x14B4 JUMP JUMPDEST DUP2 EQ PUSH2 0x14D0 JUMPI PUSH0 DUP1 REVERT JUMPDEST POP JUMP JUMPDEST PUSH0 DUP2 MLOAD SWAP1 POP PUSH2 0x14E1 DUP2 PUSH2 0x14BD JUMP JUMPDEST SWAP3 SWAP2 POP POP JUMP JUMPDEST PUSH0 PUSH1 0x20 DUP3 DUP5 SUB SLT ISZERO PUSH2 0x14FC JUMPI PUSH2 0x14FB PUSH2 0xEC7 JUMP JUMPDEST JUMPDEST PUSH0 PUSH2 0x1509 DUP5 DUP3 DUP6 ADD PUSH2 0x14D3 JUMP JUMPDEST SWAP2 POP POP SWAP3 SWAP2 POP POP JUMP JUMPDEST PUSH32 0x4E487B7100000000000000000000000000000000000000000000000000000000 PUSH0 MSTORE PUSH1 0x22 PUSH1 0x4 MSTORE PUSH1 0x24 PUSH0 REVERT JUMPDEST PUSH0 PUSH1 0x2 DUP3 DIV SWAP1 POP PUSH1 0x1 DUP3 AND DUP1 PUSH2 0x1556 JUMPI PUSH1 0x7F DUP3 AND SWAP2 POP JUMPDEST PUSH1 0x20 DUP3 LT DUP2 SUB PUSH2 0x1569 JUMPI PUSH2 0x1568 PUSH2 0x1512 JUMP JUMPDEST JUMPDEST POP SWAP2 SWAP1 POP JUMP JUMPDEST PUSH0 DUP2 SWAP1 POP DUP2 PUSH0 MSTORE PUSH1 0x20 PUSH0 KECCAK256 SWAP1 POP SWAP2 SWAP1 POP JUMP JUMPDEST PUSH0 PUSH1 0x20 PUSH1 0x1F DUP4 ADD DIV SWAP1 POP SWAP2 SWAP1 POP JUMP JUMPDEST PUSH0 DUP3 DUP3 SHL SWAP1 POP SWAP3 SWAP2 POP POP JUMP JUMPDEST PUSH0 PUSH1 0x8 DUP4 MUL PUSH2 0x15CB PUSH32 0xFFFFFFFFFFFFFFFFFFFFFFFFFFFFFFFFFFFFFFFFFFFFFFFFFFFFFFFFFFFFFFFF DUP3 PUSH2 0x1590 JUMP JUMPDEST PUSH2 0x15D5 DUP7 DUP4 PUSH2 0x1590 JUMP JUMPDEST SWAP6 POP DUP1 NOT DUP5 AND SWAP4 POP DUP1 DUP7 AND DUP5 OR SWAP3 POP POP POP SWAP4 SWAP3 POP POP POP JUMP JUMPDEST PUSH0 PUSH2 0x1607 PUSH2 0x1602 PUSH2 0x15FD DUP5 PUSH2 0x1330 JUMP JUMPDEST PUSH2 0x1438 JUMP JUMPDEST PUSH2 0x1330 JUMP JUMPDEST SWAP1 POP SWAP2 SWAP1 POP JUMP JUMPDEST PUSH0 DUP2 SWAP1 POP SWAP2 SWAP1 POP JUMP JUMPDEST PUSH2 0x1620 DUP4 PUSH2 0x15ED JUMP JUMPDEST PUSH2 0x1634 PUSH2 0x162C DUP3 PUSH2 0x160E JUMP JUMPDEST DUP5 DUP5 SLOAD PUSH2 0x159C JUMP JUMPDEST DUP3 SSTORE POP POP POP POP JUMP JUMPDEST PUSH0 SWAP1 JUMP JUMPDEST PUSH2 0x1648 PUSH2 0x163C JUMP JUMPDEST PUSH2 0x1653 DUP2 DUP5 DUP5 PUSH2 0x1617 JUMP JUMPDEST POP POP POP JUMP JUMPDEST JUMPDEST DUP2 DUP2 LT ISZERO PUSH2 0x1676 JUMPI PUSH2 0x166B PUSH0 DUP3 PUSH2 0x1640 JUMP JUMPDEST PUSH1 0x1 DUP2 ADD SWAP1 POP PUSH2 0x1659 JUMP JUMPDEST POP POP JUMP JUMPDEST PUSH1 0x1F DUP3 GT ISZERO PUSH2 0x16BB JUMPI PUSH2 0x168C DUP2 PUSH2 0x156F JUMP JUMPDEST PUSH2 0x1695 DUP5 PUSH2 0x1581 JUMP JUMPDEST DUP2 ADD PUSH1 0x20 DUP6 LT ISZERO PUSH2 0x16A4 JUMPI DUP2 SWAP1 POP JUMPDEST PUSH2 0x16B8 PUSH2 0x16B0 DUP6 PUSH2 0x1581 JUMP JUMPDEST DUP4 ADD DUP3 PUSH2 0x1658 JUMP JUMPDEST POP POP JUMPDEST POP POP POP JUMP JUMPDEST PUSH0 DUP3 DUP3 SHR SWAP1 POP SWAP3 SWAP2 POP POP JUMP JUMPDEST PUSH0 PUSH2 0x16DB PUSH0 NOT DUP5 PUSH1 0x8 MUL PUSH2 0x16C0 JUMP JUMPDEST NOT DUP1 DUP4 AND SWAP2 POP POP SWAP3 SWAP2 POP POP JUMP JUMPDEST PUSH0 PUSH2 0x16F3 DUP4 DUP4 PUSH2 0x16CC JUMP JUMPDEST SWAP2 POP DUP3 PUSH1 0x2 MUL DUP3 OR SWAP1 POP SWAP3 SWAP2 POP POP JUMP JUMPDEST PUSH2 0x170C DUP3 PUSH2 0x12A6 JUMP JUMPDEST PUSH8 0xFFFFFFFFFFFFFFFF DUP2 GT ISZERO PUSH2 0x1725 JUMPI PUSH2 0x1724 PUSH2 0xFC3 JUMP JUMPDEST JUMPDEST PUSH2 0x172F DUP3 SLOAD PUSH2 0x153F JUMP JUMPDEST PUSH2 0x173A DUP3 DUP3 DUP6 PUSH2 0x167A JUMP JUMPDEST PUSH0 PUSH1 0x20 SWAP1 POP PUSH1 0x1F DUP4 GT PUSH1 0x1 DUP2 EQ PUSH2 0x176B JUMPI PUSH0 DUP5 ISZERO PUSH2 0x1759 JUMPI DUP3 DUP8 ADD MLOAD SWAP1 POP JUMPDEST PUSH2 0x1763 DUP6 DUP3 PUSH2 0x16E8 JUMP JUMPDEST DUP7 SSTORE POP PUSH2 0x17CA JUMP JUMPDEST PUSH1 0x1F NOT DUP5 AND PUSH2 0x1779 DUP7 PUSH2 0x156F JUMP JUMPDEST PUSH0 JUMPDEST DUP3 DUP2 LT ISZERO PUSH2 0x17A0 JUMPI DUP5 DUP10 ADD MLOAD DUP3 SSTORE PUSH1 0x1 DUP3 ADD SWAP2 POP PUSH1 0x20 DUP6 ADD SWAP5 POP PUSH1 0x20 DUP2 ADD SWAP1 POP PUSH2 0x177B JUMP JUMPDEST DUP7 DUP4 LT ISZERO PUSH2 0x17BD JUMPI DUP5 DUP10 ADD MLOAD PUSH2 0x17B9 PUSH1 0x1F DUP10 AND DUP3 PUSH2 0x16CC JUMP JUMPDEST DUP4 SSTORE POP JUMPDEST PUSH1 0x1 PUSH1 0x2 DUP9 MUL ADD DUP9 SSTORE POP POP POP JUMPDEST POP POP POP POP POP POP JUMP INVALID LOG2 PUSH5 0x6970667358 0x22 SLT KECCAK256 SWAP6 0xB5 PUSH28 0x791C90682D1B049D8E8E124875CAC7732F508A8AAE595A377B4A2C93 0xAA PUSH5 0x736F6C6343 STOP ADDMOD EQ STOP CALLER "
		},
		"gasEstimates": {
			"creation": {
				"codeDepositCost": "1230400",
				"executionCost": "25544",
				"totalCost": "1255944"
			},
			"external": {
				"addAuthorizedUser(address)": "26947",
				"authorizedUsers(address)": "2833",
				"owner()": "2527",
				"queryNews((string,string,string))": "infinite"
			}
		},
		"methodIdentifiers": {
			"addAuthorizedUser(address)": "177d2a74",
			"authorizedUsers(address)": "1828983a",
			"owner()": "8da5cb5b",
			"queryNews((string,string,string))": "ad02b1c9"
		}
	},
	"abi": [
		{
			"inputs": [
				{
					"internalType": "address",
					"name": "user",
					"type": "address"
				}
			],
			"name": "addAuthorizedUser",
			"outputs": [],
			"stateMutability": "nonpayable",
			"type": "function"
		},
		{
			"inputs": [
				{
					"internalType": "address",
					"name": "",
					"type": "address"
				}
			],
			"name": "authorizedUsers",
			"outputs": [
				{
					"internalType": "bool",
					"name": "",
					"type": "bool"
				}
			],
			"stateMutability": "view",
			"type": "function"
		},
		{
			"inputs": [],
			"name": "owner",
			"outputs": [
				{
					"internalType": "address",
					"name": "",
					"type": "address"
				}
			],
			"stateMutability": "view",
			"type": "function"
		},
		{
			"inputs": [
				{
					"components": [
						{
							"internalType": "string",
							"name": "title",
							"type": "string"
						},
						{
							"internalType": "string",
							"name": "content",
							"type": "string"
						},
						{
							"internalType": "string",
							"name": "author",
							"type": "string"
						}
					],
					"internalType": "struct AIGCStorage.NewsData",
					"name": "_newsData",
					"type": "tuple"
				}
			],
			"name": "queryNews",
			"outputs": [],
			"stateMutability": "nonpayable",
			"type": "function"
		}
	]
}